{"abi":[{"type":"constructor","inputs":[{"name":"asset_","type":"address","internalType":"address"},{"name":"initialOwner","type":"address","internalType":"address"}],"stateMutability":"nonpayable"},{"type":"function","name":"allowance","inputs":[{"name":"owner","type":"address","internalType":"address"},{"name":"spender","type":"address","internalType":"address"}],"outputs":[{"name":"","type":"uint256","internalType":"uint256"}],"stateMutability":"view"},{"type":"function","name":"approve","inputs":[{"name":"spender","type":"address","internalType":"address"},{"name":"value","type":"uint256","internalType":"uint256"}],"outputs":[{"name":"","type":"bool","internalType":"bool"}],"stateMutability":"nonpayable"},{"type":"function","name":"asset","inputs":[],"outputs":[{"name":"","type":"address","internalType":"address"}],"stateMutability":"view"},{"type":"function","name":"balanceOf","inputs":[{"name":"account","type":"address","internalType":"address"}],"outputs":[{"name":"","type":"uint256","internalType":"uint256"}],"stateMutability":"view"},{"type":"function","name":"convertToAssets","inputs":[{"name":"shares","type":"uint256","internalType":"uint256"}],"outputs":[{"name":"","type":"uint256","internalType":"uint256"}],"stateMutability":"view"},{"type":"function","name":"convertToShares","inputs":[{"name":"assets","type":"uint256","internalType":"uint256"}],"outputs":[{"name":"","type":"uint256","internalType":"uint256"}],"stateMutability":"view"},{"type":"function","name":"decimals","inputs":[],"outputs":[{"name":"","type":"uint8","internalType":"uint8"}],"stateMutability":"view"},{"type":"function","name":"deposit","inputs":[{"name":"assets","type":"uint256","internalType":"uint256"},{"name":"receiver","type":"address","internalType":"address"}],"outputs":[{"name":"","type":"uint256","internalType":"uint256"}],"stateMutability":"nonpayable"},{"type":"function","name":"depositFees","inputs":[{"name":"assets","type":"uint256","internalType":"uint256"}],"outputs":[],"stateMutability":"nonpayable"},{"type":"function","name":"feeCollector","inputs":[],"outputs":[{"name":"","type":"address","internalType":"address"}],"stateMutability":"view"},{"type":"function","name":"maxDeposit","inputs":[{"name":"","type":"address","internalType":"address"}],"outputs":[{"name":"","type":"uint256","internalType":"uint256"}],"stateMutability":"view"},{"type":"function","name":"maxMint","inputs":[{"name":"","type":"address","internalType":"address"}],"outputs":[{"name":"","type":"uint256","internalType":"uint256"}],"stateMutability":"view"},{"type":"function","name":"maxRedeem","inputs":[{"name":"owner","type":"address","internalType":"address"}],"outputs":[{"name":"","type":"uint256","internalType":"uint256"}],"stateMutability":"view"},{"type":"function","name":"maxWithdraw","inputs":[{"name":"owner","type":"address","internalType":"address"}],"outputs":[{"name":"","type":"uint256","internalType":"uint256"}],"stateMutability":"view"},{"type":"function","name":"mint","inputs":[{"name":"shares","type":"uint256","internalType":"uint256"},{"name":"receiver","type":"address","internalType":"address"}],"outputs":[{"name":"","type":"uint256","internalType":"uint256"}],"stateMutability":"nonpayable"},{"type":"function","name":"name","inputs":[],"outputs":[{"name":"","type":"string","internalType":"string"}],"stateMutability":"view"},{"type":"function","name":"owner","inputs":[],"outputs":[{"name":"","type":"address","internalType":"address"}],"stateMutability":"view"},{"type":"function","name":"previewDeposit","inputs":[{"name":"assets","type":"uint256","internalType":"uint256"}],"outputs":[{"name":"","type":"uint256","internalType":"uint256"}],"stateMutability":"view"},{"type":"function","name":"previewMint","inputs":[{"name":"shares","type":"uint256","internalType":"uint256"}],"outputs":[{"name":"","type":"uint256","internalType":"uint256"}],"stateMutability":"view"},{"type":"function","name":"previewRedeem","inputs":[{"name":"shares","type":"uint256","internalType":"uint256"}],"outputs":[{"name":"","type":"uint256","internalType":"uint256"}],"stateMutability":"view"},{"type":"function","name":"previewWithdraw","inputs":[{"name":"assets","type":"uint256","internalType":"uint256"}],"outputs":[{"name":"","type":"uint256","internalType":"uint256"}],"stateMutability":"view"},{"type":"function","name":"redeem","inputs":[{"name":"shares","type":"uint256","internalType":"uint256"},{"name":"receiver","type":"address","internalType":"address"},{"name":"owner","type":"address","internalType":"address"}],"outputs":[{"name":"","type":"uint256","internalType":"uint256"}],"stateMutability":"nonpayable"},{"type":"function","name":"renounceOwnership","inputs":[],"outputs":[],"stateMutability":"nonpayable"},{"type":"function","name":"setFeeCollector","inputs":[{"name":"newCollector","type":"address","internalType":"address"}],"outputs":[],"stateMutability":"nonpayable"},{"type":"function","name":"symbol","inputs":[],"outputs":[{"name":"","type":"string","internalType":"string"}],"stateMutability":"view"},{"type":"function","name":"totalAssets","inputs":[],"outputs":[{"name":"","type":"uint256","internalType":"uint256"}],"stateMutability":"view"},{"type":"function","name":"totalSupply","inputs":[],"outputs":[{"name":"","type":"uint256","internalType":"uint256"}],"stateMutability":"view"},{"type":"function","name":"transfer","inputs":[{"name":"to","type":"address","internalType":"address"},{"name":"value","type":"uint256","internalType":"uint256"}],"outputs":[{"name":"","type":"bool","internalType":"bool"}],"stateMutability":"nonpayable"},{"type":"function","name":"transferFrom","inputs":[{"name":"from","type":"address","internalType":"address"},{"name":"to","type":"address","internalType":"address"},{"name":"value","type":"uint256","internalType":"uint256"}],"outputs":[{"name":"","type":"bool","internalType":"bool"}],"stateMutability":"nonpayable"},{"type":"function","name":"transferOwnership","inputs":[{"name":"newOwner","type":"address","internalType":"address"}],"outputs":[],"stateMutability":"nonpayable"},{"type":"function","name":"withdraw","inputs":[{"name":"assets","type":"uint256","internalType":"uint256"},{"name":"receiver","type":"address","internalType":"address"},{"name":"owner","type":"address","internalType":"address"}],"outputs":[{"name":"","type":"uint256","internalType":"uint256"}],"stateMutability":"nonpayable"},{"type":"event","name":"Approval","inputs":[{"name":"owner","type":"address","indexed":true,"internalType":"address"},{"name":"spender","type":"address","indexed":true,"internalType":"address"},{"name":"value","type":"uint256","indexed":false,"internalType":"uint256"}],"anonymous":false},{"type":"event","name":"Deposit","inputs":[{"name":"sender","type":"address","indexed":true,"internalType":"address"},{"name":"owner","type":"address","indexed":true,"internalType":"address"},{"name":"assets","type":"uint256","indexed":false,"internalType":"uint256"},{"name":"shares","type":"uint256","indexed":false,"internalType":"uint256"}],"anonymous":false},{"type":"event","name":"FeeCollectorUpdated","inputs":[{"name":"previous","type":"address","indexed":true,"internalType":"address"},{"name":"next","type":"address","indexed":true,"internalType":"address"}],"anonymous":false},{"type":"event","name":"FeesReceived","inputs":[{"name":"from","type":"address","indexed":true,"internalType":"address"},{"name":"assets","type":"uint256","indexed":false,"internalType":"uint256"}],"anonymous":false},{"type":"event","name":"OwnershipTransferred","inputs":[{"name":"previousOwner","type":"address","indexed":true,"internalType":"address"},{"name":"newOwner","type":"address","indexed":true,"internalType":"address"}],"anonymous":false},{"type":"event","name":"Transfer","inputs":[{"name":"from","type":"address","indexed":true,"internalType":"address"},{"name":"to","type":"address","indexed":true,"internalType":"address"},{"name":"value","type":"uint256","indexed":false,"internalType":"uint256"}],"anonymous":false},{"type":"event","name":"Withdraw","inputs":[{"name":"sender","type":"address","indexed":true,"internalType":"address"},{"name":"receiver","type":"address","indexed":true,"internalType":"address"},{"name":"owner","type":"address","indexed":true,"internalType":"address"},{"name":"assets","type":"uint256","indexed":false,"internalType":"uint256"},{"name":"shares","type":"uint256","indexed":false,"internalType":"uint256"}],"anonymous":false},{"type":"error","name":"ERC20InsufficientAllowance","inputs":[{"name":"spender","type":"address","internalType":"address"},{"name":"allowance","type":"uint256","internalType":"uint256"},{"name":"needed","type":"uint256","internalType":"uint256"}]},{"type":"error","name":"ERC20InsufficientBalance","inputs":[{"name":"sender","type":"address","internalType":"address"},{"name":"balance","type":"uint256","internalType":"uint256"},{"name":"needed","type":"uint256","internalType":"uint256"}]},{"type":"error","name":"ERC20InvalidApprover","inputs":[{"name":"approver","type":"address","internalType":"address"}]},{"type":"error","name":"ERC20InvalidReceiver","inputs":[{"name":"receiver","type":"address","internalType":"address"}]},{"type":"error","name":"ERC20InvalidSender","inputs":[{"name":"sender","type":"address","internalType":"address"}]},{"type":"error","name":"ERC20InvalidSpender","inputs":[{"name":"spender","type":"address","internalType":"address"}]},{"type":"error","name":"ERC4626ExceededMaxDeposit","inputs":[{"name":"receiver","type":"address","internalType":"address"},{"name":"assets","type":"uint256","internalType":"uint256"},{"name":"max","type":"uint256","internalType":"uint256"}]},{"type":"error","name":"ERC4626ExceededMaxMint","inputs":[{"name":"receiver","type":"address","internalType":"address"},{"name":"shares","type":"uint256","internalType":"uint256"},{"name":"max","type":"uint256","internalType":"uint256"}]},{"type":"error","name":"ERC4626ExceededMaxRedeem","inputs":[{"name":"owner","type":"address","internalType":"address"},{"name":"shares","type":"uint256","internalType":"uint256"},{"name":"max","type":"uint256","internalType":"uint256"}]},{"type":"error","name":"ERC4626ExceededMaxWithdraw","inputs":[{"name":"owner","type":"address","internalType":"address"},{"name":"assets","type":"uint256","internalType":"uint256"},{"name":"max","type":"uint256","internalType":"uint256"}]},{"type":"error","name":"NotFeeCollector","inputs":[]},{"type":"error","name":"OwnableInvalidOwner","inputs":[{"name":"owner","type":"address","internalType":"address"}]},{"type":"error","name":"OwnableUnauthorizedAccount","inputs":[{"name":"account","type":"address","internalType":"address"}]},{"type":"error","name":"SafeERC20FailedOperation","inputs":[{"name":"token","type":"address","internalType":"address"}]}],"bytecode":{"object":"0x60c03462000419576001600160401b0390601f19601f620016a238819003828101841685019190868311868410176200031f578086926040948552833981010312620004195762000050836200043d565b926200006060208092016200043d565b6001600160a01b0394909290851691620000796200041d565b96600e88526d4665655661756c7420536861726560901b828901526200009e6200041d565b9560078752666676534841524560c81b838801528851908282116200031f57600391825460019b8c82811c921680156200040e575b87831014620003fa578188849311620003a7575b5086908883116001146200033f575f9262000333575b50505f1982851b1c1916908b1b1782555b87519283116200031f5760049788548b81811c9116801562000314575b868210146200030157868111620002b9575b508491868511600114620002535750899a84939284925f9c9b9c9562000247575b50501b925f19911b1c19161786555b63313ce56760e01b5f9081528681855afa5f51913d111661010082101680156200023d57025b60a05260805216908115620002265750600580546001600160a01b03198082168417909255604051938391167f8be0079c531659141344cd1fd0a4f28419497f9722a3daafe3b4186f6b6457e05f80a3600654161760065561124f908162000453823960805181818161023c0152818161074901528181610b6901528181610e6a0152610fc3015260a0518161078e0152f35b6024905f60405191631e4fbdf760e01b8352820152fd5b5050601262000193565b015193505f806200015e565b8493919b941691895f52855f20925f5b818110620002a357509b848c9d9c9b9c1062000289575b50505050811b0186556200016d565b01519060f8845f19921b161c191690555f8080806200027a565b8d83015185559386019391870191870162000263565b895f52855f208780870160051c820192888810620002f7575b0160051c01908c905b828110620002eb5750506200013d565b5f8155018c90620002db565b92508192620002d2565b60228a634e487b7160e01b5f525260245ffd5b90607f16906200012b565b634e487b7160e01b5f52604160045260245ffd5b015190505f80620000fd565b90848e941691865f52885f20925f5b8a8282106200038757505084116200036f575b505050811b0182556200010e565b01515f1983871b60f8161c191690555f808062000361565b91929395968291958786015181550195019301908f95949392916200034e565b909150845f52865f208880850160051c820192898610620003f0575b918f91869594930160051c01915b828110620003e1575050620000e7565b5f81558594508f9101620003d1565b92508192620003c3565b634e487b7160e01b5f52602260045260245ffd5b91607f1691620000d3565b5f80fd5b60408051919082016001600160401b038111838210176200031f57604052565b51906001600160a01b0382168203620004195756fe604060808152600480361015610013575f80fd5b5f3560e01c806301e1d114146109eb57806306fdde03146108f657806307a2d13a14610730578063095ea7b31461084d5780630a28a4771461082e57806318160ddd1461081057806323b872dd146107d4578063313ce5671461077857806338d52e0f14610735578063402d267d1461034d5780634cdad506146107305780636e553f65146106fc57806370a08231146102e4578063715018a6146106a15780638da5cb5b1461067957806394bf804d1461064557806395d89b4114610542578063a42dce80146104da578063a9059cbb146104aa578063b3d7f6b91461048b578063b460af9414610404578063ba0876521461037a578063c415b95c14610352578063c63d75b61461034d578063c6e6f59214610201578063ce96cb7714610325578063d905777e146102e4578063dd62ed3e1461029b578063ebdac09014610206578063ef8b30f7146102015763f2fde38b14610170575f80fd5b346101fd5760203660031901126101fd57610189610a74565b90610192610f16565b6001600160a01b039182169283156101e7575050600554826bffffffffffffffffffffffff60a01b821617600555167f8be0079c531659141344cd1fd0a4f28419497f9722a3daafe3b4186f6b6457e05f80a3005b905f6024925191631e4fbdf760e01b8352820152fd5b5f80fd5b610afa565b5090346101fd5760203660031901126101fd576006548235926001600160a01b03918216330361028d57508261026191309033907f0000000000000000000000000000000000000000000000000000000000000000166110c2565b519081527f2ccfc58c2cef4ee590b5f16be0548cc54afc12e1c66a67b362b7d640fd16bb2d60203392a2005b82516339fe69ff60e11b8152fd5b82346101fd57806003193601126101fd576020906102b7610a74565b6102bf610a8a565b9060018060a01b038091165f5260018452825f2091165f528252805f20549051908152f35b82346101fd5760203660031901126101fd5760209061031e610304610a74565b6001600160a01b03165f9081526020819052604090205490565b9051908152f35b82346101fd5760203660031901126101fd5760209061031e610348610304610a74565b610c2d565b610aa0565b82346101fd575f3660031901126101fd5760065490516001600160a01b039091168152602090f35b5090346101fd5761038a36610ac5565b9291936103a78460018060a01b03165f525f60205260405f205490565b8086116103cf575050836103c9916103c0602096610c2d565b94859133610f42565b51908152f35b9251632e52afbb60e21b81526001600160a01b0390941690840190815260208101949094525060408301529081906060010390fd5b5090346101fd5761041436610ac5565b9291936104346103488560018060a01b03165f525f60205260405f205490565b8086116104565750506103c9908461044d602096610c58565b94859233610f42565b9251633fa733bb60e21b81526001600160a01b0390941690840190815260208101949094525060408301529081906060010390fd5b5090346101fd5760203660031901126101fd5761031e60209235610bff565b82346101fd57806003193601126101fd576020906104d36104c9610a74565b6024359033610d7b565b5160018152f35b346101fd5760203660031901126101fd576104f3610a74565b6104fb610f16565b6006546001600160a01b0391821691829082167f5d16ad41baeb009cd23eb8f6c7cde5c2e0cd5acf4a33926ab488875c37c37f385f80a36001600160a01b03191617600655005b5090346101fd575f3660031901126101fd578051905f9280549060018260011c916001841693841561063b575b60209485851081146106285784885290811561060657506001146105ad575b6105a9868661059f828b0383610b18565b5191829182610a07565b0390f35b5f9081529295507f8a35acfbc15ff81a39ae7d344fd709f28e8600b4aa8c65c6b64bfe7fe36bd19b5b8284106105f357505050826105a99461059f92820101945f61058e565b80548685018801529286019281016105d6565b60ff191687860152505050151560051b830101925061059f826105a95f61058e565b602283634e487b7160e01b5f525260245ffd5b92607f169261056f565b5090346101fd57806003193601126101fd5760209135906103c9610667610a8a565b9261067181610bff565b809433610e55565b82346101fd575f3660031901126101fd5760055490516001600160a01b039091168152602090f35b346101fd575f3660031901126101fd576106b9610f16565b600580546001600160a01b031981169091555f906001600160a01b03167f8be0079c531659141344cd1fd0a4f28419497f9722a3daafe3b4186f6b6457e08280a3005b5090346101fd57806003193601126101fd5760209135906103c961071e610a8a565b61072784610c83565b93849133610e55565b610a4e565b82346101fd575f3660031901126101fd57517f00000000000000000000000000000000000000000000000000000000000000006001600160a01b03168152602090f35b5090346101fd575f3660031901126101fd5760ff7f0000000000000000000000000000000000000000000000000000000000000000169060ff82116107c1576020925051908152f35b601183634e487b7160e01b5f525260245ffd5b82346101fd5760603660031901126101fd576020906104d36107f4610a74565b6107fc610a8a565b6044359161080b833383610cae565b610d7b565b82346101fd575f3660031901126101fd576020906002549051908152f35b5090346101fd5760203660031901126101fd5761031e60209235610c58565b5090346101fd57806003193601126101fd57610867610a74565b6024359033156108e0576001600160a01b03169081156108ca5760209350335f5260018452825f20825f52845280835f205582519081527f8c5be1e5ebec7d5bd14f71427d1e84f3dd0314c0f7b2291e5b200ac8c7c3b925843392a35160018152f35b8251634a1406b160e11b81525f81860152602490fd5b825163e602df0560e01b81525f81860152602490fd5b5090346101fd575f3660031901126101fd578051905f9260035460018160011c916001811680156109e1575b60209485851082146109ce57508387529081156109ae5750600114610954575b50505061059f826105a9940383610b18565b60035f9081529295507fc2575a0e9e593c00f959f8c92f12db2869c3395a3b0502d05e2516446f71f85b5b82841061099b57505050826105a99461059f9282010194610942565b805486850188015292860192810161097f565b60ff1916868501525050151560051b830101925061059f826105a9610942565b602290634e487b7160e01b5f525260245ffd5b92607f1692610922565b82346101fd575f3660031901126101fd5760209061031e610b4e565b602080825282518183018190529093925f5b828110610a3a57505060409293505f838284010152601f8019910116010190565b818101860151848201604001528501610a19565b346101fd5760203660031901126101fd576020610a6c600435610c2d565b604051908152f35b600435906001600160a01b03821682036101fd57565b602435906001600160a01b03821682036101fd57565b346101fd5760203660031901126101fd57610ab9610a74565b5060206040515f198152f35b60609060031901126101fd57600435906001600160a01b039060243582811681036101fd579160443590811681036101fd5790565b346101fd5760203660031901126101fd576020610a6c600435610c83565b90601f8019910116810190811067ffffffffffffffff821117610b3a57604052565b634e487b7160e01b5f52604160045260245ffd5b6040516370a0823160e01b81523060048201526020816024817f00000000000000000000000000000000000000000000000000000000000000006001600160a01b03165afa908115610bd3575f91610ba4575090565b90506020813d602011610bcb575b81610bbf60209383610b18565b810103126101fd575190565b3d9150610bb2565b6040513d5f823e3d90fd5b91908201809211610beb57565b634e487b7160e01b5f52601160045260245ffd5b610c07610b4e565b60018101809111610beb576002549060018201809211610beb57610c2a9261114b565b90565b610c35610b4e565b60018101809111610beb576002549060018201809211610beb57610c2a9261117f565b60025460018101809111610beb57610c6e610b4e565b9060018201809211610beb57610c2a9261114b565b60025460018101809111610beb57610c99610b4e565b9060018201809211610beb57610c2a9261117f565b919060018060a01b0380931692835f526001602052604093845f2091831691825f52602052845f2054925f198410610ce9575b505050505050565b848410610d4b57508015610d34578115610d1d575f526001602052835f20905f5260205203905f20555f8080808080610ce1565b8451634a1406b160e11b81525f6004820152602490fd5b845163e602df0560e01b81525f6004820152602490fd5b8551637dc7a0d960e11b81526001600160a01b039190911660048201526024810184905260448101859052606490fd5b916001600160a01b03808416928315610e3d5716928315610e2557825f525f60205260405f205490828210610df35750817fddf252ad1be2c89b69c2b068fc378daa952ba7f163c4a11628f55a4df523b3ef92602092855f525f84520360405f2055845f5260405f20818154019055604051908152a3565b60405163391434e360e21b81526001600160a01b03919091166004820152602481019190915260448101829052606490fd5b60405163ec442f0560e01b81525f6004820152602490fd5b604051634b637e8f60e11b81525f6004820152602490fd5b6001600160a01b039390918490610e908530867f000000000000000000000000000000000000000000000000000000000000000086166110c2565b16938415610e25577fdcbc1c05240f31ff3ad067ef1ee35ce4997762752e3a095284754544f4c709d79282610ec9604094600254610bde565b600255865f525f602052835f20818154019055865f7fddf252ad1be2c89b69c2b068fc378daa952ba7f163c4a11628f55a4df523b3ef60208751858152a3835195865260208601521692a3565b6005546001600160a01b03163303610f2a57565b60405163118cdaa760e01b8152336004820152602490fd5b6001600160a01b0380841695909485831694939092828887036110b1575b50508615610e3d57865f525f602052604093845f20549083821061108057508290885f525f60205203845f205581600254036002555f877fddf252ad1be2c89b69c2b068fc378daa952ba7f163c4a11628f55a4df523b3ef60208751868152a3857f0000000000000000000000000000000000000000000000000000000000000000169584519163a9059cbb60e01b5f521695866004528360245260205f60448180855af160015f5114811615611061575b8286521561104c575050825191825260208201527ffbde797d201c681b91056529119e0b02407c7bb96a4a2c75c01fc9667232c8db9190a4565b635274afe760e01b8252600482015260249150fd5b600181151661107757813b15153d151616611012565b823d5f823e3d90fd5b855163391434e360e21b81526001600160a01b03919091166004820152602481019190915260448101839052606490fd5b6110bb9186610cae565b5f82610f60565b6040516323b872dd60e01b5f9081526001600160a01b03938416600452938316602452604494909452909160209060648180855af160015f511481161561112c575b836040525f6060521561111657505050565b635274afe760e01b835216600482015260249150fd5b600181151661114257813b15153d151616611104565b833d5f823e3d90fd5b9161115781838561117f565b91811561116b57610c2a9309151590610bde565b634e487b7160e01b5f52601260045260245ffd5b90915f19838309928083029283808610950394808603951461120b57848311156111f35790829109815f038216809204600280826003021880830282030280830282030280830282030280830282030280830282030280920290030293600183805f03040190848311900302920304170290565b82634e487b715f52156003026011186020526024601cfd5b50508092501561116b57049056fea264697066735822122059bfd0b9c801bcdc96b88327ea0e871dd3f6621d525df3aa002a1ebd7e06afb664736f6c63430008180033","linkReferences":{}},"methodIdentifiers":{"allowance(address,address)":"dd62ed3e","approve(address,uint256)":"095ea7b3","asset()":"38d52e0f","balanceOf(address)":"70a08231","convertToAssets(uint256)":"07a2d13a","convertToShares(uint256)":"c6e6f592","decimals()":"313ce567","deposit(uint256,address)":"6e553f65","depositFees(uint256)":"ebdac090","feeCollector()":"c415b95c","maxDeposit(address)":"402d267d","maxMint(address)":"c63d75b6","maxRedeem(address)":"d905777e","maxWithdraw(address)":"ce96cb77","mint(uint256,address)":"94bf804d","name()":"06fdde03","owner()":"8da5cb5b","previewDeposit(uint256)":"ef8b30f7","previewMint(uint256)":"b3d7f6b9","previewRedeem(uint256)":"4cdad506","previewWithdraw(uint256)":"0a28a477","redeem(uint256,address,address)":"ba087652","renounceOwnership()":"715018a6","setFeeCollector(address)":"a42dce80","symbol()":"95d89b41","totalAssets()":"01e1d114","totalSupply()":"18160ddd","transfer(address,uint256)":"a9059cbb","transferFrom(address,address,uint256)":"23b872dd","transferOwnership(address)":"f2fde38b","withdraw(uint256,address,address)":"b460af94"},"id":111}