{"abi":[{"type":"constructor","inputs":[{"name":"initialOwner","type":"address","internalType":"address"}],"stateMutability":"nonpayable"},{"type":"function","name":"CLOCK_MODE","inputs":[],"outputs":[{"name":"","type":"string","internalType":"string"}],"stateMutability":"view"},{"type":"function","name":"DOMAIN_SEPARATOR","inputs":[],"outputs":[{"name":"","type":"bytes32","internalType":"bytes32"}],"stateMutability":"view"},{"type":"function","name":"MAX_SUPPLY","inputs":[],"outputs":[{"name":"","type":"uint256","internalType":"uint256"}],"stateMutability":"view"},{"type":"function","name":"allowance","inputs":[{"name":"owner","type":"address","internalType":"address"},{"name":"spender","type":"address","internalType":"address"}],"outputs":[{"name":"","type":"uint256","internalType":"uint256"}],"stateMutability":"view"},{"type":"function","name":"approve","inputs":[{"name":"spender","type":"address","internalType":"address"},{"name":"value","type":"uint256","internalType":"uint256"}],"outputs":[{"name":"","type":"bool","internalType":"bool"}],"stateMutability":"nonpayable"},{"type":"function","name":"balanceOf","inputs":[{"name":"account","type":"address","internalType":"address"}],"outputs":[{"name":"","type":"uint256","internalType":"uint256"}],"stateMutability":"view"},{"type":"function","name":"checkpoints","inputs":[{"name":"account","type":"address","internalType":"address"},{"name":"pos","type":"uint32","internalType":"uint32"}],"outputs":[{"name":"","type":"tuple","internalType":"struct Checkpoints.Checkpoint208","components":[{"name":"_key","type":"uint48","internalType":"uint48"},{"name":"_value","type":"uint208","internalType":"uint208"}]}],"stateMutability":"view"},{"type":"function","name":"clock","inputs":[],"outputs":[{"name":"","type":"uint48","internalType":"uint48"}],"stateMutability":"view"},{"type":"function","name":"decimals","inputs":[],"outputs":[{"name":"","type":"uint8","internalType":"uint8"}],"stateMutability":"view"},{"type":"function","name":"delegate","inputs":[{"name":"delegatee","type":"address","internalType":"address"}],"outputs":[],"stateMutability":"nonpayable"},{"type":"function","name":"delegateBySig","inputs":[{"name":"delegatee","type":"address","internalType":"address"},{"name":"nonce","type":"uint256","internalType":"uint256"},{"name":"expiry","type":"uint256","internalType":"uint256"},{"name":"v","type":"uint8","internalType":"uint8"},{"name":"r","type":"bytes32","internalType":"bytes32"},{"name":"s","type":"bytes32","internalType":"bytes32"}],"outputs":[],"stateMutability":"nonpayable"},{"type":"function","name":"delegates","inputs":[{"name":"account","type":"address","internalType":"address"}],"outputs":[{"name":"","type":"address","internalType":"address"}],"stateMutability":"view"},{"type":"function","name":"eip712Domain","inputs":[],"outputs":[{"name":"fields","type":"bytes1","internalType":"bytes1"},{"name":"name","type":"string","internalType":"string"},{"name":"version","type":"string","internalType":"string"},{"name":"chainId","type":"uint256","internalType":"uint256"},{"name":"verifyingContract","type":"address","internalType":"address"},{"name":"salt","type":"bytes32","internalType":"bytes32"},{"name":"extensions","type":"uint256[]","internalType":"uint256[]"}],"stateMutability":"view"},{"type":"function","name":"getPastTotalSupply","inputs":[{"name":"timepoint","type":"uint256","internalType":"uint256"}],"outputs":[{"name":"","type":"uint256","internalType":"uint256"}],"stateMutability":"view"},{"type":"function","name":"getPastVotes","inputs":[{"name":"account","type":"address","internalType":"address"},{"name":"timepoint","type":"uint256","internalType":"uint256"}],"outputs":[{"name":"","type":"uint256","internalType":"uint256"}],"stateMutability":"view"},{"type":"function","name":"getVotes","inputs":[{"name":"account","type":"address","internalType":"address"}],"outputs":[{"name":"","type":"uint256","internalType":"uint256"}],"stateMutability":"view"},{"type":"function","name":"mint","inputs":[{"name":"to","type":"address","internalType":"address"},{"name":"amount","type":"uint256","internalType":"uint256"}],"outputs":[],"stateMutability":"nonpayable"},{"type":"function","name":"name","inputs":[],"outputs":[{"name":"","type":"string","internalType":"string"}],"stateMutability":"view"},{"type":"function","name":"nonces","inputs":[{"name":"owner","type":"address","internalType":"address"}],"outputs":[{"name":"","type":"uint256","internalType":"uint256"}],"stateMutability":"view"},{"type":"function","name":"numCheckpoints","inputs":[{"name":"account","type":"address","internalType":"address"}],"outputs":[{"name":"","type":"uint32","internalType":"uint32"}],"stateMutability":"view"},{"type":"function","name":"owner","inputs":[],"outputs":[{"name":"","type":"address","internalType":"address"}],"stateMutability":"view"},{"type":"function","name":"permit","inputs":[{"name":"owner","type":"address","internalType":"address"},{"name":"spender","type":"address","internalType":"address"},{"name":"value","type":"uint256","internalType":"uint256"},{"name":"deadline","type":"uint256","internalType":"uint256"},{"name":"v","type":"uint8","internalType":"uint8"},{"name":"r","type":"bytes32","internalType":"bytes32"},{"name":"s","type":"bytes32","internalType":"bytes32"}],"outputs":[],"stateMutability":"nonpayable"},{"type":"function","name":"renounceOwnership","inputs":[],"outputs":[],"stateMutability":"nonpayable"},{"type":"function","name":"symbol","inputs":[],"outputs":[{"name":"","type":"string","internalType":"string"}],"stateMutability":"view"},{"type":"function","name":"totalSupply","inputs":[],"outputs":[{"name":"","type":"uint256","internalType":"uint256"}],"stateMutability":"view"},{"type":"function","name":"transfer","inputs":[{"name":"to","type":"address","internalType":"address"},{"name":"value","type":"uint256","internalType":"uint256"}],"outputs":[{"name":"","type":"bool","internalType":"bool"}],"stateMutability":"nonpayable"},{"type":"function","name":"transferFrom","inputs":[{"name":"from","type":"address","internalType":"address"},{"name":"to","type":"address","internalType":"address"},{"name":"value","type":"uint256","internalType":"uint256"}],"outputs":[{"name":"","type":"bool","internalType":"bool"}],"stateMutability":"nonpayable"},{"type":"function","name":"transferOwnership","inputs":[{"name":"newOwner","type":"address","internalType":"address"}],"outputs":[],"stateMutability":"nonpayable"},{"type":"event","name":"Approval","inputs":[{"name":"owner","type":"address","indexed":true,"internalType":"address"},{"name":"spender","type":"address","indexed":true,"internalType":"address"},{"name":"value","type":"uint256","indexed":false,"internalType":"uint256"}],"anonymous":false},{"type":"event","name":"DelegateChanged","inputs":[{"name":"delegator","type":"address","indexed":true,"internalType":"address"},{"name":"fromDelegate","type":"address","indexed":true,"internalType":"address"},{"name":"toDelegate","type":"address","indexed":true,"internalType":"address"}],"anonymous":false},{"type":"event","name":"DelegateVotesChanged","inputs":[{"name":"delegate","type":"address","indexed":true,"internalType":"address"},{"name":"previousVotes","type":"uint256","indexed":false,"internalType":"uint256"},{"name":"newVotes","type":"uint256","indexed":false,"internalType":"uint256"}],"anonymous":false},{"type":"event","name":"EIP712DomainChanged","inputs":[],"anonymous":false},{"type":"event","name":"Minted","inputs":[{"name":"to","type":"address","indexed":true,"internalType":"address"},{"name":"amount","type":"uint256","indexed":false,"internalType":"uint256"}],"anonymous":false},{"type":"event","name":"OwnershipTransferred","inputs":[{"name":"previousOwner","type":"address","indexed":true,"internalType":"address"},{"name":"newOwner","type":"address","indexed":true,"internalType":"address"}],"anonymous":false},{"type":"event","name":"Transfer","inputs":[{"name":"from","type":"address","indexed":true,"internalType":"address"},{"name":"to","type":"address","indexed":true,"internalType":"address"},{"name":"value","type":"uint256","indexed":false,"internalType":"uint256"}],"anonymous":false},{"type":"error","name":"CheckpointUnorderedInsertion","inputs":[]},{"type":"error","name":"ECDSAInvalidSignature","inputs":[]},{"type":"error","name":"ECDSAInvalidSignatureLength","inputs":[{"name":"length","type":"uint256","internalType":"uint256"}]},{"type":"error","name":"ECDSAInvalidSignatureS","inputs":[{"name":"s","type":"bytes32","internalType":"bytes32"}]},{"type":"error","name":"ERC20ExceededSafeSupply","inputs":[{"name":"increasedSupply","type":"uint256","internalType":"uint256"},{"name":"cap","type":"uint256","internalType":"uint256"}]},{"type":"error","name":"ERC20InsufficientAllowance","inputs":[{"name":"spender","type":"address","internalType":"address"},{"name":"allowance","type":"uint256","internalType":"uint256"},{"name":"needed","type":"uint256","internalType":"uint256"}]},{"type":"error","name":"ERC20InsufficientBalance","inputs":[{"name":"sender","type":"address","internalType":"address"},{"name":"balance","type":"uint256","internalType":"uint256"},{"name":"needed","type":"uint256","internalType":"uint256"}]},{"type":"error","name":"ERC20InvalidApprover","inputs":[{"name":"approver","type":"address","internalType":"address"}]},{"type":"error","name":"ERC20InvalidReceiver","inputs":[{"name":"receiver","type":"address","internalType":"address"}]},{"type":"error","name":"ERC20InvalidSender","inputs":[{"name":"sender","type":"address","internalType":"address"}]},{"type":"error","name":"ERC20InvalidSpender","inputs":[{"name":"spender","type":"address","internalType":"address"}]},{"type":"error","name":"ERC2612ExpiredSignature","inputs":[{"name":"deadline","type":"uint256","internalType":"uint256"}]},{"type":"error","name":"ERC2612InvalidSigner","inputs":[{"name":"signer","type":"address","internalType":"address"},{"name":"owner","type":"address","internalType":"address"}]},{"type":"error","name":"ERC5805FutureLookup","inputs":[{"name":"timepoint","type":"uint256","internalType":"uint256"},{"name":"clock","type":"uint48","internalType":"uint48"}]},{"type":"error","name":"ERC6372InconsistentClock","inputs":[]},{"type":"error","name":"InvalidAccountNonce","inputs":[{"name":"account","type":"address","internalType":"address"},{"name":"currentNonce","type":"uint256","internalType":"uint256"}]},{"type":"error","name":"InvalidShortString","inputs":[]},{"type":"error","name":"OwnableInvalidOwner","inputs":[{"name":"owner","type":"address","internalType":"address"}]},{"type":"error","name":"OwnableUnauthorizedAccount","inputs":[{"name":"account","type":"address","internalType":"address"}]},{"type":"error","name":"SafeCastOverflowedUintDowncast","inputs":[{"name":"bits","type":"uint8","internalType":"uint8"},{"name":"value","type":"uint256","internalType":"uint256"}]},{"type":"error","name":"StringTooLong","inputs":[{"name":"str","type":"string","internalType":"string"}]},{"type":"error","name":"VotesExpiredSignature","inputs":[{"name":"expiry","type":"uint256","internalType":"uint256"}]}],"bytecode":{"object":"0x6101608060405234620000995760206200315180380380916200002282620000b1565b8439126200009957516001600160a01b0381168103620000995762000047906200015c565b60405161210690816200100b8239608051816111ac015260a05181611267015260c05181611176015260e051816111fb0152610100518161122101526101205181610881015261014051816108aa0152f35b5f80fd5b634e487b7160e01b5f52604160045260245ffd5b601f01601f1916610160908101906001600160401b03821190821017620000d757604052565b6200009d565b604081019081106001600160401b03821117620000d757604052565b604051906200010882620000dd565b565b604051906200011982620000dd565b60048252565b604051906200012e82620000dd565b60018252565b604051906200014382620000dd565b600a8252695072656469637444414f60b01b6020830152565b6200016662000134565b6200017062000134565b906200017b6200010a565b906020635044414f60e01b81840152620001946200011f565b603160f81b828201908152855190959194916001600160401b038211620000d757620001cd82620001c760035462000326565b62000361565b8390601f83116001146200029957918062000204926200020d95945f926200028d575b50508160011b915f199060031b1c19161790565b600355620004b5565b6200021882620006d8565b610120526200022783620007e2565b61014052815191012060e052519020610100524660a05262000248620008e9565b6080523060c0526001600160a01b038116156200027557806200026f620001089262000690565b6200059e565b604051631e4fbdf760e01b81525f6004820152602490fd5b015190505f80620001f0565b60035f52601f19831691907fc2575a0e9e593c00f959f8c92f12db2869c3395a3b0502d05e2516446f71f85b925f5b878282106200030f5750509160019391856200020d97969410620002f6575b505050811b01600355620004b5565b01515f1960f88460031b161c191690555f8080620002e7565b6001859682939686015181550195019301620002c8565b90600182811c9216801562000356575b60208310146200034257565b634e487b7160e01b5f52602260045260245ffd5b91607f169162000336565b601f81116200036e575050565b60035f5260205f20906020601f840160051c83019310620003ab575b601f0160051c01905b8181106200039f575050565b5f815560010162000393565b90915081906200038a565b601f8111620003c3575050565b60045f5260205f20906020601f840160051c8301931062000400575b601f0160051c01905b818110620003f4575050565b5f8155600101620003e8565b9091508190620003df565b601f811162000418575050565b60055f5260205f20906020601f840160051c8301931062000455575b601f0160051c01905b81811062000449575050565b5f81556001016200043d565b909150819062000434565b601f81116200046d575050565b60065f5260205f20906020601f840160051c83019310620004aa575b601f0160051c01905b8181106200049e575050565b5f815560010162000492565b909150819062000489565b80519091906001600160401b038111620000d757620004e181620004db60045462000326565b620003b6565b602080601f831160011462000519575081906200051493945f926200028d5750508160011b915f199060031b1c19161790565b600455565b60045f52601f198316949091907f8a35acfbc15ff81a39ae7d344fd709f28e8600b4aa8c65c6b64bfe7fe36bd19b925f905b878210620005855750508360019596106200056c575b505050811b01600455565b01515f1960f88460031b161c191690555f808062000561565b806001859682949686015181550195019301906200054b565b6001600160a01b038116801562000678576002546a084595161401484a0000009081810180911162000672576002556001600160a01b0383165f9081526020819052604090209081540190555f7fddf252ad1be2c89b69c2b068fc378daa952ba7f163c4a11628f55a4df523b3ef604051806200062a81906a084595161401484a000000602083019252565b0390a36002546001600160d01b0381116200064b5750620001089062000a07565b604051630e58ae9360e11b815260048101919091526001600160d01b036024820152604490fd5b620009f3565b60405163ec442f0560e01b81525f6004820152602490fd5b600b80546001600160a01b039283166001600160a01b0319821681179092559091167f8be0079c531659141344cd1fd0a4f28419497f9722a3daafe3b4186f6b6457e05f80a3565b90815160208082105f14620006f857505090620006f59062000978565b90565b6001600160401b038211620000d7576200071f826200071960055462000326565b6200040b565b602090601f83116001146200075a575081906200075293945f926200028d5750508160011b915f199060031b1c19161790565b60055560ff90565b60055f52601f198316949091907f036b6384b5eca791c62761152d0c79bb0604c104a5fb6f4eb0703f3154bb3db0925f905b878210620007c9575050836001959610620007b0575b505050811b0160055560ff90565b01515f1960f88460031b161c191690555f8080620007a2565b806001859682949686015181550195019301906200078c565b90815160208082105f14620007ff57505090620006f59062000978565b6001600160401b038211620000d75762000826826200082060065462000326565b62000460565b602090601f831160011462000861575081906200085993945f926200028d5750508160011b915f199060031b1c19161790565b60065560ff90565b60065f52601f198316949091907ff652222313e28459528d920b65115c16c04f3efc82aaedc97be59f3f377c0d3f925f905b878210620008d0575050836001959610620008b7575b505050811b0160065560ff90565b01515f1960f88460031b161c191690555f8080620008a9565b8060018596829496860151815501950193019062000893565b60e051610100516040519060208201927f8b73c3c69bb8fe3d512ecc4cf759cc79239f7b179b0ffacaa9a75d522b39400f8452604083015260608201524660808201523060a082015260a0815260c0810181811060018060401b03821117620000d75760405251902090565b6020815191015190602081106200096a575090565b5f199060200360031b1b1690565b601f81511162000993576200098d8162000955565b90511790565b6040519063305a27a960e01b82528160208060048301528251908160248401525f935b828510620009d9575050604492505f838284010152601f80199101168101030190fd5b8481018201518686016044015293810193859350620009b6565b634e487b7160e01b5f52601160045260245ffd5b65ffffffffffff9081431162000ad157600a548062000aa1575062000a3e620001089262000a355f62000fc3565b90431662000dff565b50506001600160a01b0390811690811562000a8f575b60086020527f5eff886ea0ce6ca488a3d6e336d6c0f75f46d19b42c06ce5ee98e42c96d256c7545f9283526040909220548116911662000bd4565b62000a9962000af0565b505062000a54565b915f19908382810111620006725762000a3562000a3e926200010895600a5f5260205f2001015460301c62000fc3565b6040516306dfcc6560e41b815260306004820152436024820152604490fd5b65ffffffffffff80431162000ad157600a548062000b3d57505f5b6001600160d01b039081166a0845951614014849ffffff1901908111620006725762000b3991431662000dff565b9091565b5f199080828101116200067257600a5f52015f8051602062003111833981519152015460301c62000b0b565b65ffffffffffff9081431162000ad15780548062000bb357505f905b6001600160d01b039182166a084595161401484a00000001918211620006725762000b399243169062000ef8565b5f199080828101116200067257825f5260205f2001015460301c9062000b85565b6001600160a01b03808316929190811690818414158062000d1e575b62000bfc575b50505050565b8162000c68575b50508162000c14575b808062000bf6565b6001600160a01b03165f9081526009602052604090205f80516020620031318339815191529062000c459062000b69565b604080516001600160d01b039384168152919092166020820152a25f8062000c0c565b6001600160a01b03165f90815260096020526040902065ffffffffffff9081431162000ad15780548062000ce457505f80516020620031318339815191529162000cc19162000cb75f62000fe6565b9143169062000ef8565b604080516001600160d01b039384168152919092166020820152a25f8062000c03565b915f19918383810111620006725762000cb762000cc1935f805160206200313183398151915295835f5260205f2001015460301c62000fe6565b50600162000bf0565b5f198101919082116200067257565b600a549068010000000000000000821015620000d7576001820180600a5582101562000d9657600a5f5280516020919091015160301b65ffffffffffff191665ffffffffffff91909116175f805160206200311183398151915290910155565b634e487b7160e01b5f52603260045260245ffd5b90815468010000000000000000811015620000d7576001810180845581101562000d96575f9283526020928390208251929093015160301b65ffffffffffff191665ffffffffffff9290921691909117910155565b600a54919291801562000eca5762000e1b62000e329162000d27565b600a5f525f80516020620031118339815191520190565b9081549165ffffffffffff9081841691831680831162000eb85786920362000e7a5762000e7392509065ffffffffffff82549181199060301b169116179055565b60301c9190565b505062000eb29062000e9d62000e8f620000f9565b65ffffffffffff9092168252565b6001600160d01b038516602082015262000d36565b62000e73565b604051632520601d60e01b8152600490fd5b5062000ef39062000ede62000e8f620000f9565b6001600160d01b038416602082015262000d36565b5f9190565b8054929392801562000f995762000f1362000f1e9162000d27565b825f5260205f200190565b9182549265ffffffffffff9182851692811680841162000eb85787930362000f60575062000e7392509065ffffffffffff82549181199060301b169116179055565b91505062000eb29162000f8462000f76620000f9565b65ffffffffffff9093168352565b6001600160d01b038616602083015262000daa565b509062000ef39162000fae62000f76620000f9565b6001600160d01b038516602083015262000daa565b6001600160d01b039081166a084595161401484a00000001908111620006725790565b6001600160d01b039081166a0845951614014849ffffff190190811162000672579056fe60806040526004361015610011575f80fd5b5f3560e01c806306fdde03146101d4578063095ea7b3146101cf57806318160ddd146101ca57806323b872dd146101c5578063313ce567146101c057806332cb6b0c146101bb5780633644e515146101b65780633a46b1a8146101b157806340c10f19146101ac5780634bf5d7e9146101a7578063587cde1e146101a25780635c19a95c1461019d5780636fcfff451461019857806370a0823114610193578063715018a61461018e5780637ecebe001461018957806384b0196e146101845780638da5cb5b1461017f5780638e539e8c1461017a57806391ddadf41461017557806395d89b41146101705780639ab24eb01461016b578063a9059cbb14610166578063c3cda52014610161578063d505accf1461015c578063dd62ed3e14610157578063f1127ed8146101525763f2fde38b1461014d575f80fd5b610eb0565b610dfe565b610da7565b610c74565b610bab565b610b65565b610b1e565b610a79565b610a4e565b610987565b61095f565b610869565b610831565b6107d6565b61079e565b610738565b610714565b6106db565b61064a565b610574565b610496565b610474565b61044f565b610434565b610389565b61036c565b61033b565b61022b565b91908251928382525f5b848110610203575050825f602080949584010152601f8019910116010190565b6020818301810151848301820152016101e3565b9060206102289281815201906101d9565b90565b3461030b575f36600319011261030b576040515f60035461024b81610f50565b808452906020906001908181169081156102e15750600114610288575b6102848561027881870382611011565b60405191829182610217565b0390f35b60035f90815293507fc2575a0e9e593c00f959f8c92f12db2869c3395a3b0502d05e2516446f71f85b5b8385106102ce5750505050810160200161027882610284610268565b80548686018401529382019381016102b2565b8695506102849693506020925061027894915060ff191682840152151560051b8201019293610268565b5f80fd5b600435906001600160a01b038216820361030b57565b602435906001600160a01b038216820361030b57565b3461030b57604036600319011261030b5761036161035761030f565b6024359033611533565b602060405160018152f35b3461030b575f36600319011261030b576020600254604051908152f35b3461030b57606036600319011261030b576103a261030f565b6103aa610325565b6001600160a01b0382165f9081526001602090815260408083203384529091529020604435919054925f1984106103f2575b6103e69350611068565b60405160018152602090f35b82841061040e57610409836103e6950333836115e1565b6103dc565b604051637dc7a0d960e11b81523360048201526024810185905260448101849052606490fd5b3461030b575f36600319011261030b57602060405160128152f35b3461030b575f36600319011261030b5760206040516a52b7d2dcc80cd2e40000008152f35b3461030b575f36600319011261030b57602061048e611173565b604051908152f35b3461030b57604036600319011261030b576001600160a01b036104b761030f565b165f52600960205260405f206104ce60243561128d565b8154905f829160058411610521575b6104e89350846117ee565b908161050657505060205f5b6040516001600160d01b039091168152f35b6105116020926112ce565b905f52815f20015460301c6104f4565b919261052c81611669565b810390811161056f576104e893855f5265ffffffffffff808360205f20015416908516105f1461055d5750916104dd565b92915061056990611033565b906104dd565b610f3c565b3461030b57604036600319011261030b5761058d61030f565b602435906105996112dc565b60025482810180911161056f576a52b7d2dcc80cd2e40000001061060557610600816105e6847f30385c845b448a36257a6a1716e6ad2e1bc2cbe333cde1e69fe849ad6511adfe94611308565b6040519384526001600160a01b0316929081906020820190565b0390a2005b60405162461bcd60e51b815260206004820152601d60248201527f476f7665726e616e6365546f6b656e3a206361702065786365656465640000006044820152606490fd5b3461030b575f36600319011261030b5761066343611619565b65ffffffffffff8061067443611619565b169116036106c95761028460405161068b81610f9c565b601d81527f6d6f64653d626c6f636b6e756d6265722666726f6d3d64656661756c7400000060208201526040519182916020835260208301906101d9565b6040516301bfc1c560e61b8152600490fd5b3461030b57602036600319011261030b5760206001600160a01b03806106ff61030f565b165f526008825260405f205416604051908152f35b3461030b57602036600319011261030b5761073661073061030f565b336113b3565b005b3461030b57602036600319011261030b576001600160a01b0361075961030f565b165f52600960205260405f205463ffffffff9081811161077f5760209160405191168152f35b604490604051906306dfcc6560e41b8252602060048301526024820152fd5b3461030b57602036600319011261030b57602061048e6107bc61030f565b6001600160a01b03165f9081526020819052604090205490565b3461030b575f36600319011261030b576107ee6112dc565b600b80546001600160a01b031981169091555f906001600160a01b03167f8be0079c531659141344cd1fd0a4f28419497f9722a3daafe3b4186f6b6457e08280a3005b3461030b57602036600319011261030b576001600160a01b0361085261030f565b165f526007602052602060405f2054604051908152f35b3461030b575f36600319011261030b576109026108a57f0000000000000000000000000000000000000000000000000000000000000000611992565b6108ce7f0000000000000000000000000000000000000000000000000000000000000000611a90565b604051906108db82610fbd565b5f8252610910602091604051958695600f60f81b875260e0602088015260e08701906101d9565b9085820360408701526101d9565b4660608501523060808501525f60a085015283810360c0850152602080845192838152019301915f5b82811061094857505050500390f35b835185528695509381019392810192600101610939565b3461030b575f36600319011261030b57600b546040516001600160a01b039091168152602090f35b3461030b57602036600319011261030b576109a360043561128d565b600a54905f8291600584116109f5575b6109bd9350611794565b806109ce57506040515f8152602090f35b6109d96020916112ce565b600a5f525f805160206120b1833981519152015460301c6104f4565b9192610a0081611669565b810390811161056f576109bd93600a5f5265ffffffffffff80835f805160206120b1833981519152015416908516105f14610a3c5750916109b3565b929150610a4890611033565b906109b3565b3461030b575f36600319011261030b576020610a6943611619565b65ffffffffffff60405191168152f35b3461030b575f36600319011261030b576040515f600454610a9981610f50565b808452906020906001908181169081156102e15750600114610ac5576102848561027881870382611011565b60045f90815293507f8a35acfbc15ff81a39ae7d344fd709f28e8600b4aa8c65c6b64bfe7fe36bd19b5b838510610b0b5750505050810160200161027882610284610268565b8054868601840152938201938101610aef565b3461030b57602036600319011261030b576001600160a01b03610b3f61030f565b165f526009602052602060018060d01b03610b5c60405f20611478565b16604051908152f35b3461030b57604036600319011261030b57610361610b8161030f565b6024359033611068565b6064359060ff8216820361030b57565b6084359060ff8216820361030b57565b3461030b5760c036600319011261030b57610bc461030f565b60443590602435610bd3610b8b565b834211610c5b57610c4f61073694610c56926040519060208201927fe48329057bfd03d55e49b547132e39cffd9c1820ad7b9d4c5307691425d15adf845260018060a01b0388166040840152866060840152608083015260808252610c3782610fd9565b610c4a60a43593608435935190206114a0565b6114c6565b91826114de565b6113b3565b604051632341d78760e11b815260048101859052602490fd5b3461030b5760e036600319011261030b57610c8d61030f565b610c95610325565b60443590606435610ca4610b9b565b814211610d8e576001600160a01b038581165f8181526007602090815260409182902080546001810190915582517f6e71edae12b1b97f4d1f60370fef10105fa2faae0126114a169c64845d6126c99281019283529283019390935292861660608201526080810187905260a081019190915260c080820194909452928352610d47929091610d3460e083611011565b610c4a60c4359360a435935190206114a0565b6001600160a01b0384811690821603610d64575061073692611533565b6040516325c0072360e11b81526001600160a01b0391821660048201529084166024820152604490fd5b60405163313c898160e11b815260048101839052602490fd5b3461030b57604036600319011261030b576020610df5610dc561030f565b610dcd610325565b6001600160a01b039182165f9081526001855260408082209290931681526020919091522090565b54604051908152f35b3461030b57604036600319011261030b57610e1761030f565b6024359063ffffffff8216820361030b5761028491610e6691610e38611050565b50610e41611050565b506001600160a01b03165f908152600960205260409020610e60611050565b50611c85565b5060405190610e7482610f9c565b5465ffffffffffff811680835260309190911c60209283019081526040805192835290516001600160d01b031692820192909252918291820190565b3461030b57602036600319011261030b57610ec961030f565b610ed16112dc565b6001600160a01b03908116908115610f2457600b54826bffffffffffffffffffffffff60a01b821617600b55167f8be0079c531659141344cd1fd0a4f28419497f9722a3daafe3b4186f6b6457e05f80a3005b604051631e4fbdf760e01b81525f6004820152602490fd5b634e487b7160e01b5f52601160045260245ffd5b90600182811c92168015610f7e575b6020831014610f6a57565b634e487b7160e01b5f52602260045260245ffd5b91607f1691610f5f565b634e487b7160e01b5f52604160045260245ffd5b6040810190811067ffffffffffffffff821117610fb857604052565b610f88565b6020810190811067ffffffffffffffff821117610fb857604052565b60a0810190811067ffffffffffffffff821117610fb857604052565b60c0810190811067ffffffffffffffff821117610fb857604052565b90601f8019910116810190811067ffffffffffffffff821117610fb857604052565b906001820180921161056f57565b6040519061104e82610f9c565b565b6040519061105d82610f9c565b5f6020838281520152565b6001600160a01b038082169493929190851561115b5782168015611143576001600160a01b0382165f9081526020819052604090205495848710611114578461104e9697036110c68460018060a01b03165f525f60205260405f2090565b556001600160a01b0384165f908152602081815260409182902080548801905590518681527fddf252ad1be2c89b69c2b068fc378daa952ba7f163c4a11628f55a4df523b3ef9190a3611df7565b60405163391434e360e21b81526001600160a01b03841660048201526024810188905260448101869052606490fd5b60405163ec442f0560e01b81525f6004820152602490fd5b604051634b637e8f60e11b81525f6004820152602490fd5b307f00000000000000000000000000000000000000000000000000000000000000006001600160a01b03161480611264575b156111ce577f000000000000000000000000000000000000000000000000000000000000000090565b60405160208101907f8b73c3c69bb8fe3d512ecc4cf759cc79239f7b179b0ffacaa9a75d522b39400f82527f000000000000000000000000000000000000000000000000000000000000000060408201527f000000000000000000000000000000000000000000000000000000000000000060608201524660808201523060a082015260a0815261125e81610ff5565b51902090565b507f000000000000000000000000000000000000000000000000000000000000000046146111a5565b65ffffffffffff61129d43611619565b16808210156112b0575061022890611619565b6044925060405191637669fc0f60e11b835260048301526024820152fd5b5f1981019190821161056f57565b600b546001600160a01b031633036112f057565b60405163118cdaa760e01b8152336004820152602490fd5b91906001600160a01b03831680156111435760025482810180911161056f576002556001600160a01b0384165f90815260208181526040808320805486019055518481527fddf252ad1be2c89b69c2b068fc378daa952ba7f163c4a11628f55a4df523b3ef9190a3600254926001600160d01b03841161138d5761104e929350611d7a565b604051630e58ae9360e11b8152600481018590526001600160d01b036024820152604490fd5b6001600160a01b038181165f81815260086020526040812080548685166001600160a01b03198216811790925561104e9694169461142e9390928691907f3134e8a2e6d97e929a7e54011ea5485d7d196dd5f0ba4d4ef95803e8e3fc257f9080a46001600160a01b03165f9081526020819052604090205490565b91611842565b600a548061144157505f90565b805f1981011161056f57600a5f527fc65a7bb8d6351c1cf70c95a316cc6a92839c986682d98bc35f958f4883f9d2a7015460301c90565b8054806114855750505f90565b5f1991818381011161056f575f5260205f2001015460301c90565b6042906114ab611173565b906040519161190160f01b8352600283015260228201522090565b9161022893916114d593611b4d565b90929192611bf8565b6001600160a01b0381165f908152600760205260409020805460018101909155909181900361150b575050565b6040516301d4b62360e61b81526001600160a01b039092166004830152602482015260449150fd5b6001600160a01b0380821692919083156115c95782169384156115b157806115a77f8c5be1e5ebec7d5bd14f71427d1e84f3dd0314c0f7b2291e5b200ac8c7c3b9259461159260209560018060a01b03165f52600160205260405f2090565b9060018060a01b03165f5260205260405f2090565b55604051908152a3565b604051634a1406b160e11b81525f6004820152602490fd5b60405163e602df0560e01b81525f6004820152602490fd5b906001600160a01b03808316156115c9578116156115b1576115926116169260018060a01b03165f52600160205260405f2090565b55565b65ffffffffffff9081811161162c571690565b604490604051906306dfcc6560e41b8252603060048301526024820152fd5b8115611655570490565b634e487b7160e01b5f52601260045260245ffd5b600181111561022857600181600160801b811015611782575b61172a61172061171661170c6117026116f861173697600488600160401b6117319a1015611775575b640100000000811015611768575b6201000081101561175b575b61010081101561174f575b6010811015611743575b101561173b575b60030260011c6116f1818b61164b565b0160011c90565b6116f1818a61164b565b6116f1818961164b565b6116f1818861164b565b6116f1818761164b565b6116f1818661164b565b809361164b565b821190565b900390565b60011b6116e1565b811c9160021b916116da565b60081c91811b916116d0565b60101c9160081b916116c5565b60201c9160101b916116b9565b60401c9160201b916116ab565b50600160401b9050608082901c611682565b8282106117a057505090565b909180831860011c8184160190600a5f5265ffffffffffff80835f805160206120b1833981519152015416908416105f146117de5750915b90611794565b92506117e990611033565b6117d8565b905b8383106117fd5750505090565b90919280841860011c8185160190835f5265ffffffffffff808360205f20015416908416105f146118325750925b91906117f0565b935061183d90611033565b61182b565b6001600160a01b03808316939291908116908185141580611989575b61186a575b5050505050565b816118ee575b50508261187f575b8080611863565b6001600160a01b03165f9081526009602052604090207fdec2bacdd2f05b59de34da9b523dff8be42e5e38e818c82fdb0bae774387a724916118cb916118c59091611cae565b90611ce1565b604080516001600160d01b039384168152919092166020820152a25f8080611878565b6001600160a01b03165f90815260096020526040902061190d84611cae565b61191643611619565b6001600160d01b0391828061192a86611478565b16911690039282841161056f577fdec2bacdd2f05b59de34da9b523dff8be42e5e38e818c82fdb0bae774387a7249361197f9261196692611ff6565b6040805192851683529316602082015291829190820190565b0390a25f80611870565b5083151561185e565b60ff81146119d05760ff811690601f82116119be57604051916119b483610f9c565b8252602082015290565b604051632cd44ac360e21b8152600490fd5b50604051600554815f6119e283610f50565b80835292602090600190818116908115611a6c5750600114611a0d575b505061022892500382611011565b91509260055f527f036b6384b5eca791c62761152d0c79bb0604c104a5fb6f4eb0703f3154bb3db0935f925b828410611a5457506102289450505081016020015f806119ff565b85548785018301529485019486945092810192611a39565b9150506020925061022894915060ff191682840152151560051b8201015f806119ff565b60ff8114611ab25760ff811690601f82116119be57604051916119b483610f9c565b50604051600654815f611ac483610f50565b80835292602090600190818116908115611a6c5750600114611aee57505061022892500382611011565b91509260065f527ff652222313e28459528d920b65115c16c04f3efc82aaedc97be59f3f377c0d3f935f925b828410611b3557506102289450505081016020015f806119ff565b85548785018301529485019486945092810192611b1a565b91907f7fffffffffffffffffffffffffffffff5d576e7357a4501ddfe92f46681b20a08411611bcf579160209360809260ff5f9560405194855216868401526040830152606082015282805260015afa15611bc4575f516001600160a01b03811615611bba57905f905f90565b505f906001905f90565b6040513d5f823e3d90fd5b5050505f9160039190565b60041115611be457565b634e487b7160e01b5f52602160045260245ffd5b611c0181611bda565b80611c0a575050565b611c1381611bda565b60018103611c2d5760405163f645eedf60e01b8152600490fd5b611c3681611bda565b60028103611c575760405163fce698f760e01b815260048101839052602490fd5b80611c63600392611bda565b14611c6b5750565b6040516335e2f38360e21b81526004810191909152602490fd5b8054821015611c9a575f5260205f2001905f90565b634e487b7160e01b5f52603260045260245ffd5b6001600160d01b0390818111611cc2571690565b604490604051906306dfcc6560e41b825260d060048301526024820152fd5b90611ceb43611619565b6001600160d01b03918280611cff86611478565b1691160191821161056f57611d1392611ff6565b9091565b611d2043611619565b906001600160d01b03908180611d34611434565b1691160190811161056f57611d1391611f10565b611d5143611619565b906001600160d01b03908180611d65611434565b169116900390811161056f57611d1391611f10565b9061104e91611d90611d8b83611cae565b611d17565b50506001600160a01b03908116908115611ddf575b60086020527f5eff886ea0ce6ca488a3d6e336d6c0f75f46d19b42c06ce5ee98e42c96d256c7545f92835260409092205481169116611842565b611df0611deb84611cae565b611d48565b5050611da5565b61104e92916001600160a01b03918216919081908315611e4b575b16918215611e38575b5f5260086020528060405f205416915f5260405f20541690611842565b611e44611deb85611cae565b5050611e1b565b611e57611d8b86611cae565b5050611e12565b600a5490600160401b821015610fb8576001820180600a55821015611c9a57600a5f52805160209091015160301b65ffffffffffff191665ffffffffffff91909116175f805160206120b183398151915290910155565b8054600160401b811015610fb857611ed291600182018155611c85565b611efd57815160209092015160301b65ffffffffffff191665ffffffffffff92909216919091179055565b634e487b7160e01b5f525f60045260245ffd5b600a549192918015611fcd57611f28611f3e916112ce565b600a5f525f805160206120b18339815191520190565b9081549165ffffffffffff90818416918316808311611fbb57869203611f8357611f7c92509065ffffffffffff82549181199060301b169116179055565b60301c9190565b5050611fb690611fa2611f94611041565b65ffffffffffff9092168252565b6001600160d01b0385166020820152611e5e565b611f7c565b604051632520601d60e01b8152600490fd5b50611ff190611fdd611f94611041565b6001600160d01b0384166020820152611e5e565b5f9190565b8054929392801561208b5761200d612018916112ce565b825f5260205f200190565b9182549265ffffffffffff91828516928116808411611fbb578793036120575750611f7c92509065ffffffffffff82549181199060301b169116179055565b915050611fb691612077612069611041565b65ffffffffffff9093168352565b6001600160d01b0386166020830152611eb5565b5090611ff19161209c612069611041565b6001600160d01b0385166020830152611eb556fec65a7bb8d6351c1cf70c95a316cc6a92839c986682d98bc35f958f4883f9d2a8a2646970667358221220fb99aee334aa6e6b6a220d676f298e62b81f7bcc9882a976ccc015794f27b44764736f6c63430008180033c65a7bb8d6351c1cf70c95a316cc6a92839c986682d98bc35f958f4883f9d2a8dec2bacdd2f05b59de34da9b523dff8be42e5e38e818c82fdb0bae774387a724","linkReferences":{}},"methodIdentifiers":{"CLOCK_MODE()":"4bf5d7e9","DOMAIN_SEPARATOR()":"3644e515","MAX_SUPPLY()":"32cb6b0c","allowance(address,address)":"dd62ed3e","approve(address,uint256)":"095ea7b3","balanceOf(address)":"70a08231","checkpoints(address,uint32)":"f1127ed8","clock()":"91ddadf4","decimals()":"313ce567","delegate(address)":"5c19a95c","delegateBySig(address,uint256,uint256,uint8,bytes32,bytes32)":"c3cda520","delegates(address)":"587cde1e","eip712Domain()":"84b0196e","getPastTotalSupply(uint256)":"8e539e8c","getPastVotes(address,uint256)":"3a46b1a8","getVotes(address)":"9ab24eb0","mint(address,uint256)":"40c10f19","name()":"06fdde03","nonces(address)":"7ecebe00","numCheckpoints(address)":"6fcfff45","owner()":"8da5cb5b","permit(address,address,uint256,uint256,uint8,bytes32,bytes32)":"d505accf","renounceOwnership()":"715018a6","symbol()":"95d89b41","totalSupply()":"18160ddd","transfer(address,uint256)":"a9059cbb","transferFrom(address,address,uint256)":"23b872dd","transferOwnership(address)":"f2fde38b"},"id":109}