{"abi":[{"type":"constructor","inputs":[{"name":"implementation_","type":"address","internalType":"address"},{"name":"collateral_","type":"address","internalType":"address"},{"name":"shareToken_","type":"address","internalType":"address"},{"name":"feeVault_","type":"address","internalType":"address"},{"name":"initialOwner_","type":"address","internalType":"address"}],"stateMutability":"nonpayable"},{"type":"function","name":"allMarkets","inputs":[{"name":"","type":"uint256","internalType":"uint256"}],"outputs":[{"name":"","type":"address","internalType":"address"}],"stateMutability":"view"},{"type":"function","name":"collateral","inputs":[],"outputs":[{"name":"","type":"address","internalType":"address"}],"stateMutability":"view"},{"type":"function","name":"create2Market","inputs":[{"name":"","type":"bytes32","internalType":"bytes32"}],"outputs":[{"name":"","type":"address","internalType":"address"}],"stateMutability":"view"},{"type":"function","name":"deployWithCreate","inputs":[{"name":"marketOwner","type":"address","internalType":"address"}],"outputs":[{"name":"market","type":"address","internalType":"address"}],"stateMutability":"nonpayable"},{"type":"function","name":"deployWithCreate2","inputs":[{"name":"salt","type":"bytes32","internalType":"bytes32"},{"name":"marketOwner","type":"address","internalType":"address"}],"outputs":[{"name":"market","type":"address","internalType":"address"}],"stateMutability":"nonpayable"},{"type":"function","name":"feeVault","inputs":[],"outputs":[{"name":"","type":"address","internalType":"address"}],"stateMutability":"view"},{"type":"function","name":"implementation","inputs":[],"outputs":[{"name":"","type":"address","internalType":"address"}],"stateMutability":"view"},{"type":"function","name":"isMarket","inputs":[{"name":"","type":"address","internalType":"address"}],"outputs":[{"name":"","type":"bool","internalType":"bool"}],"stateMutability":"view"},{"type":"function","name":"owner","inputs":[],"outputs":[{"name":"","type":"address","internalType":"address"}],"stateMutability":"view"},{"type":"function","name":"predictCreate2Address","inputs":[{"name":"salt","type":"bytes32","internalType":"bytes32"},{"name":"marketOwner","type":"address","internalType":"address"}],"outputs":[{"name":"predicted","type":"address","internalType":"address"}],"stateMutability":"view"},{"type":"function","name":"renounceOwnership","inputs":[],"outputs":[],"stateMutability":"nonpayable"},{"type":"function","name":"shareToken","inputs":[],"outputs":[{"name":"","type":"address","internalType":"address"}],"stateMutability":"view"},{"type":"function","name":"totalMarkets","inputs":[],"outputs":[{"name":"","type":"uint256","internalType":"uint256"}],"stateMutability":"view"},{"type":"function","name":"transferOwnership","inputs":[{"name":"newOwner","type":"address","internalType":"address"}],"outputs":[],"stateMutability":"nonpayable"},{"type":"event","name":"MarketDeployedCreate","inputs":[{"name":"market","type":"address","indexed":true,"internalType":"address"},{"name":"index","type":"uint256","indexed":true,"internalType":"uint256"}],"anonymous":false},{"type":"event","name":"MarketDeployedCreate2","inputs":[{"name":"market","type":"address","indexed":true,"internalType":"address"},{"name":"salt","type":"bytes32","indexed":true,"internalType":"bytes32"},{"name":"index","type":"uint256","indexed":true,"internalType":"uint256"}],"anonymous":false},{"type":"event","name":"OwnershipTransferred","inputs":[{"name":"previousOwner","type":"address","indexed":true,"internalType":"address"},{"name":"newOwner","type":"address","indexed":true,"internalType":"address"}],"anonymous":false},{"type":"error","name":"OwnableInvalidOwner","inputs":[{"name":"owner","type":"address","internalType":"address"}]},{"type":"error","name":"OwnableUnauthorizedAccount","inputs":[{"name":"account","type":"address","internalType":"address"}]},{"type":"error","name":"SaltAlreadyUsed","inputs":[{"name":"salt","type":"bytes32","internalType":"bytes32"}]},{"type":"error","name":"ZeroAddress","inputs":[]}],"bytecode":{"object":"0x6101003461019d57601f610e9638819003918201601f19168301916001600160401b038311848410176101a15780849260a09460405283398101031261019d57610048816101b5565b610054602083016101b5565b610060604084016101b5565b91608061006f606086016101b5565b946001600160a01b0391829161008591016101b5565b16908115610185575f80546001600160a01b03198116841782556040519391908316907f8be0079c531659141344cd1fd0a4f28419497f9722a3daafe3b4186f6b6457e09080a38083161590811561017a575b811561016f575b8115610164575b50610155575060805260a05260c05260e052604051610ccc90816101ca8239608051818181610200015281816103810152818161055d01526106a7015260a051818181610170015261089e015260c05181818161051801526108cf015260e0518181816105e601526108f70152f35b63d92e233d60e01b8152600490fd5b90508516155f6100e6565b8581161591506100df565b8481161591506100d8565b604051631e4fbdf760e01b81525f6004820152602490fd5b5f80fd5b634e487b7160e01b5f52604160045260245ffd5b51906001600160a01b038216820361019d5756fe60406080815260048036101562000014575f80fd5b5f3560e01c80630813dd5214620006475780632f0397031462000615578063478222c214620005d057806352d84d1e146200058c5780635c60da1b14620005475780636c9fa59e14620005025780636ec934da14620004c2578063715018a614620004675780637826782f14620002fd5780638162486b14620002dd5780638da5cb5b14620002b457806390a5886d146200019f578063d8dfeb45146200015a5763f2fde38b14620000c4575f80fd5b34620001565760203660031901126200015657620000e162000794565b90620000ec62000949565b6001600160a01b03918216928315620001405750505f54826bffffffffffffffffffffffff60a01b8216175f55167f8be0079c531659141344cd1fd0a4f28419497f9722a3daafe3b4186f6b6457e05f80a3005b905f6024925191631e4fbdf760e01b8352820152fd5b5f80fd5b823462000156575f3660031901126200015657517f00000000000000000000000000000000000000000000000000000000000000006001600160a01b03168152602090f35b509034620001565760203660031901126200015657620001d2620001c262000794565b620001cc62000949565b6200088c565b8151906102c58083019083821067ffffffffffffffff831117620002a1579162000226918493620009d285397f0000000000000000000000000000000000000000000000000000000000000000906200084f565b03905ff0801562000297576001600160a01b0316620002458162000975565b6001545f198101929083116200028457602093505191817f7233adc75054aa39a497a284862d71cec7f4eb835c4f6520ad262899d2f873235f80a38152f35b601184634e487b7160e01b5f525260245ffd5b50513d5f823e3d90fd5b604186634e487b7160e01b5f525260245ffd5b823462000156575f36600319011262000156575f5490516001600160a01b039091168152602090f35b823462000156575f36600319011262000156576020906001549051908152f35b50903462000156578060031936011262000156578135906200031e6200077d565b6200032862000949565b5f8381526003602052829020546001600160a01b0391908216620004505762000351906200088c565b8251906102c58083019083821067ffffffffffffffff8311176200043d578392879492620003a792620009d285397f0000000000000000000000000000000000000000000000000000000000000000906200084f565b03905ff5801562000433571690825f526003602052805f20826bffffffffffffffffffffffff60a01b825416179055620003e18262000975565b6001545f198101919082116200042057602094505192827f684df4313d2a2178cf124988740b358d8546e6f2ddccd889b55c311fa82155285f80a48152f35b601185634e487b7160e01b5f525260245ffd5b82513d5f823e3d90fd5b604188634e487b7160e01b5f525260245ffd5b82516345d74a5360e11b8152808601859052602490fd5b3462000156575f36600319011262000156576200048362000949565b5f80546001600160a01b0319811682556001600160a01b03167f8be0079c531659141344cd1fd0a4f28419497f9722a3daafe3b4186f6b6457e08280a3005b82346200015657602036600319011262000156576020906001600160a01b03620004eb62000794565b165f526002825260ff815f20541690519015158152f35b823462000156575f3660031901126200015657517f00000000000000000000000000000000000000000000000000000000000000006001600160a01b03168152602090f35b823462000156575f3660031901126200015657517f00000000000000000000000000000000000000000000000000000000000000006001600160a01b03168152602090f35b503462000156576020366003190112620001565735906001548210156200015657620005ba602092620007ab565b905491519160018060a01b039160031b1c168152f35b823462000156575f3660031901126200015657517f00000000000000000000000000000000000000000000000000000000000000006001600160a01b03168152602090f35b509034620001565760203660031901126200015657602091355f526003825260018060a01b03815f2054169051908152f35b5034620001565781600319360112620001565762000668620001cc6200077d565b916102c56200070562000712602080968551906200068983870183620007f5565b85825282820195620009d287398651620006dc81620006cd868201947f0000000000000000000000000000000000000000000000000000000000000000866200084f565b03601f198101835282620007f5565b8751958693620006f5868601998a92519283916200082c565b840191518093868401906200082c565b01038084520182620007f5565b5190208151918483019160ff60f81b83523060601b602185015284356035850152605584015260558352608083019383851067ffffffffffffffff8611176200076a5750839052905190206001600160a01b03168152f35b604190634e487b7160e01b5f525260245ffd5b602435906001600160a01b03821682036200015657565b600435906001600160a01b03821682036200015657565b600154811015620007e15760015f527fb10e2d527612073b26eecdfd717e6a320cf44b4afac2b0732d9fcbe2b7fa0cf601905f90565b634e487b7160e01b5f52603260045260245ffd5b90601f8019910116810190811067ffffffffffffffff8211176200081857604052565b634e487b7160e01b5f52604160045260245ffd5b5f5b8381106200083e5750505f910152565b81810151838201526020016200082e565b909160609260018060a01b03168252604060208301526200088081518092816040860152602086860191016200082c565b601f01601f1916010190565b604051637c643b2f60e11b60208201527f00000000000000000000000000000000000000000000000000000000000000006001600160a01b0390811660248301527f0000000000000000000000000000000000000000000000000000000000000000811660448301527f000000000000000000000000000000000000000000000000000000000000000081166064830152909116608480830191909152815260c0810167ffffffffffffffff811182821017620008185760405290565b5f546001600160a01b031633036200095d57565b60405163118cdaa760e01b8152336004820152602490fd5b6001546801000000000000000081101562000818578060016200099c9201600155620007ab565b9160018060a01b038091169282549060031b9184831b921b19161790555f52600260205260405f20600160ff1982541617905556fe6040608081526102c5803803806100158161018c565b928339810182828203126101745781516001600160a01b038116928382036101745760208181015190916001600160401b039190828211610174570184601f8201121561017457805191821161017857610077601f8301601f1916840161018c565b94828652838383010111610174575f5b828110610161575050905f918401015281511561015057803b15610138577f360894a13ba1a3210667c828492db98dca3e2076cc3735a920a3ca505d382bbc80546001600160a01b031916841790558351927fbc7cd75a20ee27fd9adebab32041f755214dbc6bffa90cc0225b39da2e5c2d3b5f80a281511561011c5761010e92506101b1565b505b51608290816102438239f35b5050346101295750610110565b63b398979f60e01b8152600490fd5b8351634c9c8ce360e01b815260048101849052602490fd5b83516330a289cf60e21b8152600490fd5b8181018401518682018501528301610087565b5f80fd5b634e487b7160e01b5f52604160045260245ffd5b6040519190601f01601f191682016001600160401b0381118382101761017857604052565b905f8091602081519101845af4808061022f575b156101e55750506040513d81523d5f602083013e60203d82010160405290565b1561020c57604051639996b31560e01b81526001600160a01b039091166004820152602490fd5b3d1561021d576040513d5f823e3d90fd5b60405163d6bda27560e01b8152600490fd5b503d1515806101c55750813b15156101c556fe60806040527f360894a13ba1a3210667c828492db98dca3e2076cc3735a920a3ca505d382bbc545f9081906001600160a01b0316368280378136915af43d5f803e156048573d5ff35b3d5ffdfea26469706673582212204b6def7e59e9cf0a03de16a469e274290365f76d14c808c17c962f033c2ecbc964736f6c63430008180033a26469706673582212200e9a0a13b463ae0581e3cfab75e6299a513469654d068f9e09a467399fe1860764736f6c63430008180033","linkReferences":{}},"methodIdentifiers":{"allMarkets(uint256)":"52d84d1e","collateral()":"d8dfeb45","create2Market(bytes32)":"2f039703","deployWithCreate(address)":"90a5886d","deployWithCreate2(bytes32,address)":"7826782f","feeVault()":"478222c2","implementation()":"5c60da1b","isMarket(address)":"6ec934da","owner()":"8da5cb5b","predictCreate2Address(bytes32,address)":"0813dd52","renounceOwnership()":"715018a6","shareToken()":"6c9fa59e","totalMarkets()":"8162486b","transferOwnership(address)":"f2fde38b"},"id":103}