{"abi":[{"type":"constructor","inputs":[{"name":"admin","type":"address","internalType":"address"}],"stateMutability":"nonpayable"},{"type":"function","name":"DEFAULT_ADMIN_ROLE","inputs":[],"outputs":[{"name":"","type":"bytes32","internalType":"bytes32"}],"stateMutability":"view"},{"type":"function","name":"MINTER_ROLE","inputs":[],"outputs":[{"name":"","type":"bytes32","internalType":"bytes32"}],"stateMutability":"view"},{"type":"function","name":"balanceOf","inputs":[{"name":"account","type":"address","internalType":"address"},{"name":"id","type":"uint256","internalType":"uint256"}],"outputs":[{"name":"","type":"uint256","internalType":"uint256"}],"stateMutability":"view"},{"type":"function","name":"balanceOfBatch","inputs":[{"name":"accounts","type":"address[]","internalType":"address[]"},{"name":"ids","type":"uint256[]","internalType":"uint256[]"}],"outputs":[{"name":"","type":"uint256[]","internalType":"uint256[]"}],"stateMutability":"view"},{"type":"function","name":"burn","inputs":[{"name":"from","type":"address","internalType":"address"},{"name":"id","type":"uint256","internalType":"uint256"},{"name":"amount","type":"uint256","internalType":"uint256"}],"outputs":[],"stateMutability":"nonpayable"},{"type":"function","name":"burnBatch","inputs":[{"name":"from","type":"address","internalType":"address"},{"name":"ids","type":"uint256[]","internalType":"uint256[]"},{"name":"amounts","type":"uint256[]","internalType":"uint256[]"}],"outputs":[],"stateMutability":"nonpayable"},{"type":"function","name":"decodeId","inputs":[{"name":"tokenId","type":"uint256","internalType":"uint256"}],"outputs":[{"name":"marketId","type":"uint256","internalType":"uint256"},{"name":"isNo","type":"bool","internalType":"bool"}],"stateMutability":"pure"},{"type":"function","name":"getQuestion","inputs":[{"name":"marketId","type":"uint256","internalType":"uint256"}],"outputs":[{"name":"","type":"string","internalType":"string"}],"stateMutability":"view"},{"type":"function","name":"getRoleAdmin","inputs":[{"name":"role","type":"bytes32","internalType":"bytes32"}],"outputs":[{"name":"","type":"bytes32","internalType":"bytes32"}],"stateMutability":"view"},{"type":"function","name":"grantRole","inputs":[{"name":"role","type":"bytes32","internalType":"bytes32"},{"name":"account","type":"address","internalType":"address"}],"outputs":[],"stateMutability":"nonpayable"},{"type":"function","name":"hasRole","inputs":[{"name":"role","type":"bytes32","internalType":"bytes32"},{"name":"account","type":"address","internalType":"address"}],"outputs":[{"name":"","type":"bool","internalType":"bool"}],"stateMutability":"view"},{"type":"function","name":"isApprovedForAll","inputs":[{"name":"account","type":"address","internalType":"address"},{"name":"operator","type":"address","internalType":"address"}],"outputs":[{"name":"","type":"bool","internalType":"bool"}],"stateMutability":"view"},{"type":"function","name":"marketRegistered","inputs":[{"name":"","type":"uint256","internalType":"uint256"}],"outputs":[{"name":"","type":"bool","internalType":"bool"}],"stateMutability":"view"},{"type":"function","name":"mint","inputs":[{"name":"to","type":"address","internalType":"address"},{"name":"id","type":"uint256","internalType":"uint256"},{"name":"amount","type":"uint256","internalType":"uint256"},{"name":"data","type":"bytes","internalType":"bytes"}],"outputs":[],"stateMutability":"nonpayable"},{"type":"function","name":"mintBatch","inputs":[{"name":"to","type":"address","internalType":"address"},{"name":"ids","type":"uint256[]","internalType":"uint256[]"},{"name":"amounts","type":"uint256[]","internalType":"uint256[]"},{"name":"data","type":"bytes","internalType":"bytes"}],"outputs":[],"stateMutability":"nonpayable"},{"type":"function","name":"noId","inputs":[{"name":"marketId","type":"uint256","internalType":"uint256"}],"outputs":[{"name":"","type":"uint256","internalType":"uint256"}],"stateMutability":"pure"},{"type":"function","name":"registerMarket","inputs":[{"name":"marketId","type":"uint256","internalType":"uint256"},{"name":"question","type":"string","internalType":"string"}],"outputs":[],"stateMutability":"nonpayable"},{"type":"function","name":"renounceRole","inputs":[{"name":"role","type":"bytes32","internalType":"bytes32"},{"name":"callerConfirmation","type":"address","internalType":"address"}],"outputs":[],"stateMutability":"nonpayable"},{"type":"function","name":"revokeRole","inputs":[{"name":"role","type":"bytes32","internalType":"bytes32"},{"name":"account","type":"address","internalType":"address"}],"outputs":[],"stateMutability":"nonpayable"},{"type":"function","name":"safeBatchTransferFrom","inputs":[{"name":"from","type":"address","internalType":"address"},{"name":"to","type":"address","internalType":"address"},{"name":"ids","type":"uint256[]","internalType":"uint256[]"},{"name":"values","type":"uint256[]","internalType":"uint256[]"},{"name":"data","type":"bytes","internalType":"bytes"}],"outputs":[],"stateMutability":"nonpayable"},{"type":"function","name":"safeTransferFrom","inputs":[{"name":"from","type":"address","internalType":"address"},{"name":"to","type":"address","internalType":"address"},{"name":"id","type":"uint256","internalType":"uint256"},{"name":"value","type":"uint256","internalType":"uint256"},{"name":"data","type":"bytes","internalType":"bytes"}],"outputs":[],"stateMutability":"nonpayable"},{"type":"function","name":"setApprovalForAll","inputs":[{"name":"operator","type":"address","internalType":"address"},{"name":"approved","type":"bool","internalType":"bool"}],"outputs":[],"stateMutability":"nonpayable"},{"type":"function","name":"supportsInterface","inputs":[{"name":"interfaceId","type":"bytes4","internalType":"bytes4"}],"outputs":[{"name":"","type":"bool","internalType":"bool"}],"stateMutability":"view"},{"type":"function","name":"uri","inputs":[{"name":"","type":"uint256","internalType":"uint256"}],"outputs":[{"name":"","type":"string","internalType":"string"}],"stateMutability":"view"},{"type":"function","name":"yesId","inputs":[{"name":"marketId","type":"uint256","internalType":"uint256"}],"outputs":[{"name":"","type":"uint256","internalType":"uint256"}],"stateMutability":"pure"},{"type":"event","name":"ApprovalForAll","inputs":[{"name":"account","type":"address","indexed":true,"internalType":"address"},{"name":"operator","type":"address","indexed":true,"internalType":"address"},{"name":"approved","type":"bool","indexed":false,"internalType":"bool"}],"anonymous":false},{"type":"event","name":"MarketRegistered","inputs":[{"name":"marketId","type":"uint256","indexed":true,"internalType":"uint256"},{"name":"question","type":"string","indexed":false,"internalType":"string"}],"anonymous":false},{"type":"event","name":"RoleAdminChanged","inputs":[{"name":"role","type":"bytes32","indexed":true,"internalType":"bytes32"},{"name":"previousAdminRole","type":"bytes32","indexed":true,"internalType":"bytes32"},{"name":"newAdminRole","type":"bytes32","indexed":true,"internalType":"bytes32"}],"anonymous":false},{"type":"event","name":"RoleGranted","inputs":[{"name":"role","type":"bytes32","indexed":true,"internalType":"bytes32"},{"name":"account","type":"address","indexed":true,"internalType":"address"},{"name":"sender","type":"address","indexed":true,"internalType":"address"}],"anonymous":false},{"type":"event","name":"RoleRevoked","inputs":[{"name":"role","type":"bytes32","indexed":true,"internalType":"bytes32"},{"name":"account","type":"address","indexed":true,"internalType":"address"},{"name":"sender","type":"address","indexed":true,"internalType":"address"}],"anonymous":false},{"type":"event","name":"TransferBatch","inputs":[{"name":"operator","type":"address","indexed":true,"internalType":"address"},{"name":"from","type":"address","indexed":true,"internalType":"address"},{"name":"to","type":"address","indexed":true,"internalType":"address"},{"name":"ids","type":"uint256[]","indexed":false,"internalType":"uint256[]"},{"name":"values","type":"uint256[]","indexed":false,"internalType":"uint256[]"}],"anonymous":false},{"type":"event","name":"TransferSingle","inputs":[{"name":"operator","type":"address","indexed":true,"internalType":"address"},{"name":"from","type":"address","indexed":true,"internalType":"address"},{"name":"to","type":"address","indexed":true,"internalType":"address"},{"name":"id","type":"uint256","indexed":false,"internalType":"uint256"},{"name":"value","type":"uint256","indexed":false,"internalType":"uint256"}],"anonymous":false},{"type":"event","name":"URI","inputs":[{"name":"value","type":"string","indexed":false,"internalType":"string"},{"name":"id","type":"uint256","indexed":true,"internalType":"uint256"}],"anonymous":false},{"type":"error","name":"AccessControlBadConfirmation","inputs":[]},{"type":"error","name":"AccessControlUnauthorizedAccount","inputs":[{"name":"account","type":"address","internalType":"address"},{"name":"neededRole","type":"bytes32","internalType":"bytes32"}]},{"type":"error","name":"ERC1155InsufficientBalance","inputs":[{"name":"sender","type":"address","internalType":"address"},{"name":"balance","type":"uint256","internalType":"uint256"},{"name":"needed","type":"uint256","internalType":"uint256"},{"name":"tokenId","type":"uint256","internalType":"uint256"}]},{"type":"error","name":"ERC1155InvalidApprover","inputs":[{"name":"approver","type":"address","internalType":"address"}]},{"type":"error","name":"ERC1155InvalidArrayLength","inputs":[{"name":"idsLength","type":"uint256","internalType":"uint256"},{"name":"valuesLength","type":"uint256","internalType":"uint256"}]},{"type":"error","name":"ERC1155InvalidOperator","inputs":[{"name":"operator","type":"address","internalType":"address"}]},{"type":"error","name":"ERC1155InvalidReceiver","inputs":[{"name":"receiver","type":"address","internalType":"address"}]},{"type":"error","name":"ERC1155InvalidSender","inputs":[{"name":"sender","type":"address","internalType":"address"}]},{"type":"error","name":"ERC1155MissingApprovalForAll","inputs":[{"name":"operator","type":"address","internalType":"address"},{"name":"owner","type":"address","internalType":"address"}]},{"type":"error","name":"MarketAlreadyRegistered","inputs":[{"name":"marketId","type":"uint256","internalType":"uint256"}]},{"type":"error","name":"MarketNotRegistered","inputs":[{"name":"marketId","type":"uint256","internalType":"uint256"}]}],"bytecode":{"object":"0x60803462000143576001600160401b0390601f6200202f38819003918201601f1916830191848311848410176200012f57808492602094604052833981010312620001435751906001600160a01b0382168203620001435760405160208101918211818310176200012f575f916040525260025490600191600181811c9116801562000124575b60208210146200011057601f8111620000c6575b620000b5825f600255620000ae8162000147565b50620001b7565b50604051611d969081620002598239f35b60025f52601f0160051c7f405787fa12a823e0f2b7631cc41b3ba8828b3321ca811111fa75cd3aa3bb5ace908101905b8181106200010557506200009a565b5f81558301620000f6565b634e487b7160e01b5f52602260045260245ffd5b90607f169062000086565b634e487b7160e01b5f52604160045260245ffd5b5f80fd5b6001600160a01b03165f8181525f805160206200200f833981519152602052604090205460ff16620001b2575f8181525f805160206200200f83398151915260205260408120805460ff191660011790553391905f8051602062001fef8339815191528180a4600190565b505f90565b6001600160a01b03165f8181527f5562e70da342db81569f3094d36be279beaca7ad8e08f434ea188e79d2bfe10c60205260409020547f9f2df0fed2c77648de5860a4cc508cd0818c85b8b8a1ab4ceeef8d981c8956a6919060ff166200025257815f52600360205260405f20815f5260205260405f20600160ff1982541617905533915f8051602062001fef8339815191525f80a4600190565b50505f9056fe60806040526004361015610011575f80fd5b5f3560e01c8062fdd58e146101a357806301ffc9a71461019e57806305289253146101995780630e89341c146101945780631f7fdffa1461018f578063248a9ca31461018a5780632eb2c2d6146101855780632f2ff15d1461018057806336568abe1461017b5780633fb89d6d146101765780634e1273f41461017157806369b617641461016c5780636b20c45414610167578063731133e91461016257806391d148541461015d578063a217fddf14610158578063a22cb46514610153578063acfef2571461014e578063d539139314610149578063d547741f14610144578063db88176f1461013f578063dc20c6fa1461013a578063e985e9c514610135578063f242432a146101305763f5298aca1461012b575f80fd5b611208565b61116c565b61111c565b6110f2565b61100d565b610fd0565b610f96565b610f74565b610ea8565b610e8e565b610e40565b610ce5565b610c3a565b610b67565b610aad565b610a49565b610a02565b6109c5565b6107ad565b61063f565b610483565b61034f565b6102ce565b610246565b6101ec565b600435906001600160a01b03821682036101be57565b5f80fd5b602435906001600160a01b03821682036101be57565b35906001600160a01b03821682036101be57565b346101be5760403660031901126101be57602061022b61020a6101a8565b6024355f525f835260405f209060018060a01b03165f5260205260405f2090565b54604051908152f35b6001600160e01b03198116036101be57565b346101be5760203660031901126101be57602060043561026581610234565b63ffffffff60e01b16637965db0b60e01b811490811561028b575b506040519015158152f35b636cdb3d1360e11b8114915081156102bd575b81156102ac575b505f610280565b6301ffc9a760e01b1490505f6102a5565b6303a24d0760e21b8114915061029e565b346101be5760203660031901126101be576004355f526004602052602060ff60405f2054166040519015158152f35b91908251928382525f5b848110610327575050825f602080949584010152601f8019910116010190565b602081830181015184830182015201610307565b90602061034c9281815201906102fd565b90565b346101be576020806003193601126101be576040515f9160025461037281611278565b8084529060019081811690811561040657506001146103ac575b6103a88461039c818803826106a0565b6040519182918261033b565b0390f35b60025f9081529294507f405787fa12a823e0f2b7631cc41b3ba8828b3321ca811111fa75cd3aa3bb5ace5b8284106103f357505050816103a89361039c928201019361038c565b80548585018701529285019281016103d7565b60ff1916858501525050151560051b820101915061039c816103a861038c565b9181601f840112156101be578235916001600160401b0383116101be576020808501948460051b0101116101be57565b9181601f840112156101be578235916001600160401b0383116101be57602083818601950101116101be57565b346101be5760803660031901126101be5761049c6101a8565b6001600160401b036024358181116101be576104bc903690600401610426565b916044358181116101be576104d5903690600401610426565b9390916064359081116101be5761051c9261050c6104fa610514933690600401610456565b9690946105056114b1565b36916106d8565b9536916106d8565b92369161075c565b6001600160a01b038416929083156106275781518351908181036106055750505f5b8251811015610598578060019160051b61059061058889610573602080868b010151958b010151945f525f60205260405f2090565b9060018060a01b03165f5260205260405f2090565b9182546119b9565b90550161053e565b5092936105db9460018351145f146105dd576020838101518582015160408051928352928201525f9133915f80516020611d418339815191529190a45b33611cb4565b005b5f6040515f80516020611d218339815191523391806105fd8989836119da565b0390a46105d5565b604051635b05999160e01b815260048101919091526024810191909152604490fd5b604051632bfa23e760e11b81525f6004820152602490fd5b346101be5760203660031901126101be576004355f5260036020526020600160405f200154604051908152f35b634e487b7160e01b5f52604160045260245ffd5b602081019081106001600160401b0382111761069b57604052565b61066c565b90601f801991011681019081106001600160401b0382111761069b57604052565b6001600160401b03811161069b5760051b60200190565b92916106e3826106c1565b916106f160405193846106a0565b829481845260208094019160051b81019283116101be57905b8282106107175750505050565b8135815290830190830161070a565b9080601f830112156101be5781602061034c933591016106d8565b6001600160401b03811161069b57601f01601f191660200190565b92919261076882610741565b9161077660405193846106a0565b8294818452818301116101be578281602093845f960137010152565b9080601f830112156101be5781602061034c9335910161075c565b346101be5760a03660031901126101be576107c66101a8565b6107ce6101c2565b906044356001600160401b038082116101be576107f060049236908401610726565b926064358281116101be576108089036908501610726565b916084359081116101be576108209036908501610792565b9361082b823361154c565b6001600160a01b03868116959086156109ae57831695861561099857825185518082036109735750505f5b8351811015610909578060051b602080828701015191880101519061088687610573835f525f60205260405f2090565b548281106108cb576105888c6105738594600197966108c395036108b58d610573845f525f60205260405f2090565b555f525f60205260405f2090565b905501610856565b604080516303dee4c560e01b81526001600160a01b038a16818d01908152602081019390935290820193909352606081019190915281906080010390fd5b506105db92888587938a60018551145f1461094c5760208581015187820151604080519283529282015233915f80516020611d4183398151915291a45b33611ce9565b6040515f80516020611d2183398151915233918061096b8a8a836119da565b0390a4610946565b60408051635b05999160e01b8152808a01938452602084019290925290918291010390fd5b604051626a0d4560e21b81525f81880152602490fd5b604051632bfa23e760e11b81525f81880152602490fd5b346101be5760403660031901126101be576105db6004356109e46101c2565b90805f5260036020526109fd600160405f20015461152c565b6115ba565b346101be5760403660031901126101be57610a1b6101c2565b336001600160a01b03821603610a37576105db9060043561164a565b60405163334bd91960e11b8152600490fd5b346101be5760203660031901126101be57602060405160043560011b8152f35b9081518082526020808093019301915f5b828110610a88575050505090565b835185529381019392810192600101610a7a565b90602061034c928181520190610a69565b346101be5760403660031901126101be576004356001600160401b038082116101be57366023830112156101be578160040135610ae9816106c1565b92610af760405194856106a0565b8184526020916024602086019160051b830101913683116101be57602401905b828210610b5057856024358681116101be576103a891610b3e610b44923690600401610726565b906112d8565b60405191829182610a9c565b838091610b5c846101d8565b815201910190610b17565b346101be5760403660031901126101be576004356024356001600160401b0381116101be57610b9a903690600401610456565b90610ba36114b1565b825f52600460205260ff60405f205416610c2157907fc7f66b04e875692bd6eed5f254303398d31ec6dedd540f36524dafab5159e6f091835f52600460205260405f20600160ff19825416179055610c0d8282610c08875f52600560205260405f2090565b6113c2565b610c1c6040519283928361148a565b0390a2005b60405163d7d6c5ab60e01b815260048101849052602490fd5b346101be5760603660031901126101be57610c536101a8565b6001600160401b036024358181116101be57610c73903690600401610426565b6044929192359182116101be57610c9f610c94610ca7933690600401610426565b9490926105056114b1565b9236916106d8565b906001600160a01b03831615610cce576105db925f604051610cc881610680565b526116d2565b604051626a0d4560e21b81525f6004820152602490fd5b346101be5760803660031901126101be57610cfe6101a8565b6064356001600160401b0381116101be57610d20610d2f913690600401610456565b610d286114b1565b369161075c565b906001600160a01b03811690811561062757610d6f6044356024359160405192600184526020840152604083019160018352606084015260808301604052565b9381518551908181036106055750505f5b8251811015610dbd578060019160051b610db561058887610573602080868b010151958d010151945f525f60205260405f2090565b905501610d80565b509260206105db9592819260018251145f14610e18575f838301515f80516020611d41833981519152610e088689015160405191829133958360209093929193604081019481520152565b0390a45b01519101519133611aa6565b5f6040515f80516020611d21833981519152339180610e388a88836119da565b0390a4610e0c565b346101be5760403660031901126101be57602060ff610e82610e606101c2565b6004355f526003845260405f209060018060a01b03165f5260205260405f2090565b54166040519015158152f35b346101be575f3660031901126101be5760206040515f8152f35b346101be5760403660031901126101be57610ec16101a8565b60243580151581036101be573315610f5c576001600160a01b038216918215610f4557335f908152600160205260409020610f13918391610f029190610573565b9060ff801983541691151516179055565b604051901515815233907f17307eab39ab6107e8899845ad3d59bd9653f200f220920489ca2b5937696c3190602090a3005b60405162ced3e160e81b81525f6004820152602490fd5b604051631f18c42760e11b81525f6004820152602490fd5b346101be5760203660031901126101be5760206040516001600435811b178152f35b346101be575f3660031901126101be5760206040517f9f2df0fed2c77648de5860a4cc508cd0818c85b8b8a1ab4ceeef8d981c8956a68152f35b346101be5760403660031901126101be576105db600435610fef6101c2565b90805f526003602052611008600160405f20015461152c565b61164a565b346101be576020806003193601126101be57600435805f526004825260ff60405f205416156110da575f526005815260405f2090604051905f92805461105281611278565b808552916001918083169081156110b8575060011461107c575b6103a88561039c818903826106a0565b5f908152838120939550925b8284106110a557505050816103a89361039c92820101935f61106c565b8054858501870152928501928101611088565b60ff191686860152505050151560051b820101915061039c816103a85f61106c565b602490604051906376db8f8d60e11b82526004820152fd5b346101be5760203660031901126101be57604060043560018083519280821c845216146020820152f35b346101be5760403660031901126101be57602060ff610e8261113c6101a8565b6111446101c2565b6001600160a01b039182165f9081526001865260408082209290931681526020919091522090565b346101be5760a03660031901126101be576111856101a8565b61118d6101c2565b6084356001600160401b0381116101be576111ac903690600401610792565b906111b7833361154c565b6001600160a01b038181161561062757831615610cce576105db926112006064356044359160405192600184526020840152604083019160018352606084015260808301604052565b92909161180b565b346101be5760603660031901126101be576112216101a8565b6112296114b1565b6001600160a01b03811615610cce576105db9061126a6044356024359160405192600184526020840152604083019160018352606084015260808301604052565b915f604051610cc881610680565b90600182811c921680156112a6575b602083101461129257565b634e487b7160e01b5f52602260045260245ffd5b91607f1691611287565b80518210156112c45760209160051b010190565b634e487b7160e01b5f52603260045260245ffd5b9190918051835180820361060557505080519061130d6112f7836106c1565b9261130560405194856106a0565b8084526106c1565b60209190601f190136848401375f5b815181101561136b57600581901b8281018401519087018401515f908152602081815260408083206001600160a01b03909416835292905220546001919061136482876112b0565b520161131c565b509193505050565b601f821161138057505050565b5f5260205f20906020601f840160051c830193106113b8575b601f0160051c01905b8181106113ad575050565b5f81556001016113a2565b9091508190611399565b9092916001600160401b03811161069b576113e7816113e18454611278565b84611373565b5f601f82116001146114255781906114169394955f9261141a575b50508160011b915f199060031b1c19161790565b9055565b013590505f80611402565b601f19821694611438845f5260205f2090565b915f5b878110611472575083600195969710611459575b505050811b019055565b01355f19600384901b60f8161c191690555f808061144f565b9092602060018192868601358155019401910161143b565b90918060409360208452816020850152848401375f828201840152601f01601f1916010190565b335f9081527f5562e70da342db81569f3094d36be279beaca7ad8e08f434ea188e79d2bfe10c602052604090207f9f2df0fed2c77648de5860a4cc508cd0818c85b8b8a1ab4ceeef8d981c8956a69060ff905b54161561150e5750565b6044906040519063e2517d3f60e01b82523360048301526024820152fd5b5f818152600360209081526040808320338452909152902060ff90611504565b6001600160a01b0381811692169081831415908161158c575b5061156e575050565b604492506040519163711bec9160e11b835260048301526024820152fd5b5f8381526001602090815260408083206001600160a01b0390941683529290522060ff91505416155f611565565b5f8181526003602090815260408083206001600160a01b038616845290915290205460ff16611644575f8181526003602090815260408083206001600160a01b03861684529091529020805460ff1916600117905533916001600160a01b0316907f2f8788117e7eff1d82e926ec794901d17c78024a50270940304540a733656f0d5f80a4600190565b50505f90565b5f8181526003602090815260408083206001600160a01b038616845290915290205460ff1615611644575f8181526003602090815260408083206001600160a01b03861684529091529020805460ff1916905533916001600160a01b0316907ff6391f5c32d9c69d2a47ea670b442974b53935d1edc7fd64eb21e047a839171b5f80a4600190565b92919080518251908181036106055750505f5b815181101561179257600581901b82810160209081015191850101516001600160a01b03871661171a575b50506001016116e5565b61172f87610573845f525f60205260405f2090565b5481811061175b578761057360019594936117539303935f525f60205260405f2090565b55905f611710565b6040516303dee4c560e01b81526001600160a01b038916600482015260248101919091526044810182905260648101839052608490fd5b50905f929391600181511484146117df576020908101519181015160408051938452918301526001600160a01b039092169133915f80516020611d4183398151915291819081015b0390a4565b6040516001600160a01b039093169233925f80516020611d218339815191529282916117da91836119da565b9491909181518451908181036106055750505f5b825181101561190457600581901b83810160209081015191870101516001600160a01b03929186908a8516611884575b6001948216611862575b5050500161181f565b61187a91610573610588925f525f60205260405f2090565b90555f8581611859565b919293905061189e8a610573845f525f60205260405f2090565b548381106118cd57918791846001969594036118c58d610573855f525f60205260405f2090565b55945061184f565b6040516303dee4c560e01b81526001600160a01b038c16600482015260248101919091526044810184905260648101839052608490fd5b5094919392909360018551145f14611981576020858101518382015160408051928352928201526001600160a01b03838116929086169133915f80516020611d4183398151915291a45b6001600160a01b038116611964575b5050505050565b6020806119779601519201519233611b9f565b5f8080808061195d565b6040516001600160a01b03828116919085169033905f80516020611d2183398151915290806119b1888c836119da565b0390a461194e565b919082018092116119c657565b634e487b7160e01b5f52601160045260245ffd5b90916119f161034c93604084526040840190610a69565b916020818403910152610a69565b908160209103126101be575161034c81610234565b909260a09261034c9594600180861b031683525f60208401526040830152606082015281608082015201906102fd565b919261034c95949160a094600180871b0380921685521660208401526040830152606082015281608082015201906102fd565b3d15611aa1573d90611a8882610741565b91611a9660405193846106a0565b82523d5f602084013e565b606090565b9293919093843b611ab8575050505050565b602091611adb604051948593849363f23a6e6160e01b9889865260048601611a14565b03815f6001600160a01b0388165af15f9181611b6e575b50611b315782611b00611a77565b8051919082611b2a57604051632bfa23e760e11b81526001600160a01b0383166004820152602490fd5b6020915001fd5b6001600160e01b03191603611b4b57505f8080808061195d565b604051632bfa23e760e11b81526001600160a01b03919091166004820152602490fd5b611b9191925060203d602011611b98575b611b8981836106a0565b8101906119ff565b905f611af2565b503d611b7f565b939290949194853b611bb4575b505050505050565b611bd7602093604051958694859463f23a6e6160e01b998a875260048701611a44565b03815f6001600160a01b0388165af15f9181611c17575b50611bfc5782611b00611a77565b6001600160e01b03191603611b4b57505f8080808080611bac565b611c3191925060203d602011611b9857611b8981836106a0565b905f611bee565b92611c6661034c9593611c749360018060a01b031686525f602087015260a0604087015260a0860190610a69565b908482036060860152610a69565b9160808184039101526102fd565b939061034c9593611c6691611c749460018060a01b03809216885216602087015260a0604087015260a0860190610a69565b9293919093843b611cc6575050505050565b602091611adb604051948593849363bc197c8160e01b9889865260048601611c38565b939290949194853b611cfd57505050505050565b611bd7602093604051958694859463bc197c8160e01b998a875260048701611c8256fe4a39dc06d4c0dbc64b70af90fd698a233a518aa5d07e595d983b8c0526c8f7fbc3d58168c5ae7397731d063d5bbf3d657854427343f4c083240f7aacaa2d0f62a264697066735822122032681ece5716c0cf0968edce51b53383274dc8d0081fc428f8b81a02916fef0464736f6c634300081800332f8788117e7eff1d82e926ec794901d17c78024a50270940304540a733656f0d3617319a054d772f909f7c479a2cebe5066e836a939412e32403c99029b92eff","linkReferences":{}},"methodIdentifiers":{"DEFAULT_ADMIN_ROLE()":"a217fddf","MINTER_ROLE()":"d5391393","balanceOf(address,uint256)":"00fdd58e","balanceOfBatch(address[],uint256[])":"4e1273f4","burn(address,uint256,uint256)":"f5298aca","burnBatch(address,uint256[],uint256[])":"6b20c454","decodeId(uint256)":"dc20c6fa","getQuestion(uint256)":"db88176f","getRoleAdmin(bytes32)":"248a9ca3","grantRole(bytes32,address)":"2f2ff15d","hasRole(bytes32,address)":"91d14854","isApprovedForAll(address,address)":"e985e9c5","marketRegistered(uint256)":"05289253","mint(address,uint256,uint256,bytes)":"731133e9","mintBatch(address,uint256[],uint256[],bytes)":"1f7fdffa","noId(uint256)":"acfef257","registerMarket(uint256,string)":"69b61764","renounceRole(bytes32,address)":"36568abe","revokeRole(bytes32,address)":"d547741f","safeBatchTransferFrom(address,address,uint256[],uint256[],bytes)":"2eb2c2d6","safeTransferFrom(address,address,uint256,uint256,bytes)":"f242432a","setApprovalForAll(address,bool)":"a22cb465","supportsInterface(bytes4)":"01ffc9a7","uri(uint256)":"0e89341c","yesId(uint256)":"3fb89d6d"},"id":110}