{"abi":[{"type":"constructor","inputs":[{"name":"token_","type":"address","internalType":"contract IVotes"},{"name":"timelock_","type":"address","internalType":"contract TimelockController"}],"stateMutability":"nonpayable"},{"type":"receive","stateMutability":"payable"},{"type":"function","name":"BALLOT_TYPEHASH","inputs":[],"outputs":[{"name":"","type":"bytes32","internalType":"bytes32"}],"stateMutability":"view"},{"type":"function","name":"CLOCK_MODE","inputs":[],"outputs":[{"name":"","type":"string","internalType":"string"}],"stateMutability":"view"},{"type":"function","name":"COUNTING_MODE","inputs":[],"outputs":[{"name":"","type":"string","internalType":"string"}],"stateMutability":"pure"},{"type":"function","name":"EXTENDED_BALLOT_TYPEHASH","inputs":[],"outputs":[{"name":"","type":"bytes32","internalType":"bytes32"}],"stateMutability":"view"},{"type":"function","name":"cancel","inputs":[{"name":"targets","type":"address[]","internalType":"address[]"},{"name":"values","type":"uint256[]","internalType":"uint256[]"},{"name":"calldatas","type":"bytes[]","internalType":"bytes[]"},{"name":"descriptionHash","type":"bytes32","internalType":"bytes32"}],"outputs":[{"name":"","type":"uint256","internalType":"uint256"}],"stateMutability":"nonpayable"},{"type":"function","name":"castVote","inputs":[{"name":"proposalId","type":"uint256","internalType":"uint256"},{"name":"support","type":"uint8","internalType":"uint8"}],"outputs":[{"name":"","type":"uint256","internalType":"uint256"}],"stateMutability":"nonpayable"},{"type":"function","name":"castVoteBySig","inputs":[{"name":"proposalId","type":"uint256","internalType":"uint256"},{"name":"support","type":"uint8","internalType":"uint8"},{"name":"voter","type":"address","internalType":"address"},{"name":"signature","type":"bytes","internalType":"bytes"}],"outputs":[{"name":"","type":"uint256","internalType":"uint256"}],"stateMutability":"nonpayable"},{"type":"function","name":"castVoteWithReason","inputs":[{"name":"proposalId","type":"uint256","internalType":"uint256"},{"name":"support","type":"uint8","internalType":"uint8"},{"name":"reason","type":"string","internalType":"string"}],"outputs":[{"name":"","type":"uint256","internalType":"uint256"}],"stateMutability":"nonpayable"},{"type":"function","name":"castVoteWithReasonAndParams","inputs":[{"name":"proposalId","type":"uint256","internalType":"uint256"},{"name":"support","type":"uint8","internalType":"uint8"},{"name":"reason","type":"string","internalType":"string"},{"name":"params","type":"bytes","internalType":"bytes"}],"outputs":[{"name":"","type":"uint256","internalType":"uint256"}],"stateMutability":"nonpayable"},{"type":"function","name":"castVoteWithReasonAndParamsBySig","inputs":[{"name":"proposalId","type":"uint256","internalType":"uint256"},{"name":"support","type":"uint8","internalType":"uint8"},{"name":"voter","type":"address","internalType":"address"},{"name":"reason","type":"string","internalType":"string"},{"name":"params","type":"bytes","internalType":"bytes"},{"name":"signature","type":"bytes","internalType":"bytes"}],"outputs":[{"name":"","type":"uint256","internalType":"uint256"}],"stateMutability":"nonpayable"},{"type":"function","name":"clock","inputs":[],"outputs":[{"name":"","type":"uint48","internalType":"uint48"}],"stateMutability":"view"},{"type":"function","name":"eip712Domain","inputs":[],"outputs":[{"name":"fields","type":"bytes1","internalType":"bytes1"},{"name":"name","type":"string","internalType":"string"},{"name":"version","type":"string","internalType":"string"},{"name":"chainId","type":"uint256","internalType":"uint256"},{"name":"verifyingContract","type":"address","internalType":"address"},{"name":"salt","type":"bytes32","internalType":"bytes32"},{"name":"extensions","type":"uint256[]","internalType":"uint256[]"}],"stateMutability":"view"},{"type":"function","name":"execute","inputs":[{"name":"targets","type":"address[]","internalType":"address[]"},{"name":"values","type":"uint256[]","internalType":"uint256[]"},{"name":"calldatas","type":"bytes[]","internalType":"bytes[]"},{"name":"descriptionHash","type":"bytes32","internalType":"bytes32"}],"outputs":[{"name":"","type":"uint256","internalType":"uint256"}],"stateMutability":"payable"},{"type":"function","name":"getProposalId","inputs":[{"name":"targets","type":"address[]","internalType":"address[]"},{"name":"values","type":"uint256[]","internalType":"uint256[]"},{"name":"calldatas","type":"bytes[]","internalType":"bytes[]"},{"name":"descriptionHash","type":"bytes32","internalType":"bytes32"}],"outputs":[{"name":"","type":"uint256","internalType":"uint256"}],"stateMutability":"view"},{"type":"function","name":"getVotes","inputs":[{"name":"account","type":"address","internalType":"address"},{"name":"timepoint","type":"uint256","internalType":"uint256"}],"outputs":[{"name":"","type":"uint256","internalType":"uint256"}],"stateMutability":"view"},{"type":"function","name":"getVotesWithParams","inputs":[{"name":"account","type":"address","internalType":"address"},{"name":"timepoint","type":"uint256","internalType":"uint256"},{"name":"params","type":"bytes","internalType":"bytes"}],"outputs":[{"name":"","type":"uint256","internalType":"uint256"}],"stateMutability":"view"},{"type":"function","name":"hasVoted","inputs":[{"name":"proposalId","type":"uint256","internalType":"uint256"},{"name":"account","type":"address","internalType":"address"}],"outputs":[{"name":"","type":"bool","internalType":"bool"}],"stateMutability":"view"},{"type":"function","name":"hashProposal","inputs":[{"name":"targets","type":"address[]","internalType":"address[]"},{"name":"values","type":"uint256[]","internalType":"uint256[]"},{"name":"calldatas","type":"bytes[]","internalType":"bytes[]"},{"name":"descriptionHash","type":"bytes32","internalType":"bytes32"}],"outputs":[{"name":"","type":"uint256","internalType":"uint256"}],"stateMutability":"pure"},{"type":"function","name":"name","inputs":[],"outputs":[{"name":"","type":"string","internalType":"string"}],"stateMutability":"view"},{"type":"function","name":"nonces","inputs":[{"name":"owner","type":"address","internalType":"address"}],"outputs":[{"name":"","type":"uint256","internalType":"uint256"}],"stateMutability":"view"},{"type":"function","name":"onERC1155BatchReceived","inputs":[{"name":"","type":"address","internalType":"address"},{"name":"","type":"address","internalType":"address"},{"name":"","type":"uint256[]","internalType":"uint256[]"},{"name":"","type":"uint256[]","internalType":"uint256[]"},{"name":"","type":"bytes","internalType":"bytes"}],"outputs":[{"name":"","type":"bytes4","internalType":"bytes4"}],"stateMutability":"nonpayable"},{"type":"function","name":"onERC1155Received","inputs":[{"name":"","type":"address","internalType":"address"},{"name":"","type":"address","internalType":"address"},{"name":"","type":"uint256","internalType":"uint256"},{"name":"","type":"uint256","internalType":"uint256"},{"name":"","type":"bytes","internalType":"bytes"}],"outputs":[{"name":"","type":"bytes4","internalType":"bytes4"}],"stateMutability":"nonpayable"},{"type":"function","name":"onERC721Received","inputs":[{"name":"","type":"address","internalType":"address"},{"name":"","type":"address","internalType":"address"},{"name":"","type":"uint256","internalType":"uint256"},{"name":"","type":"bytes","internalType":"bytes"}],"outputs":[{"name":"","type":"bytes4","internalType":"bytes4"}],"stateMutability":"nonpayable"},{"type":"function","name":"proposalDeadline","inputs":[{"name":"proposalId","type":"uint256","internalType":"uint256"}],"outputs":[{"name":"","type":"uint256","internalType":"uint256"}],"stateMutability":"view"},{"type":"function","name":"proposalEta","inputs":[{"name":"proposalId","type":"uint256","internalType":"uint256"}],"outputs":[{"name":"","type":"uint256","internalType":"uint256"}],"stateMutability":"view"},{"type":"function","name":"proposalNeedsQueuing","inputs":[{"name":"proposalId","type":"uint256","internalType":"uint256"}],"outputs":[{"name":"","type":"bool","internalType":"bool"}],"stateMutability":"view"},{"type":"function","name":"proposalProposer","inputs":[{"name":"proposalId","type":"uint256","internalType":"uint256"}],"outputs":[{"name":"","type":"address","internalType":"address"}],"stateMutability":"view"},{"type":"function","name":"proposalSnapshot","inputs":[{"name":"proposalId","type":"uint256","internalType":"uint256"}],"outputs":[{"name":"","type":"uint256","internalType":"uint256"}],"stateMutability":"view"},{"type":"function","name":"proposalThreshold","inputs":[],"outputs":[{"name":"","type":"uint256","internalType":"uint256"}],"stateMutability":"view"},{"type":"function","name":"proposalVotes","inputs":[{"name":"proposalId","type":"uint256","internalType":"uint256"}],"outputs":[{"name":"againstVotes","type":"uint256","internalType":"uint256"},{"name":"forVotes","type":"uint256","internalType":"uint256"},{"name":"abstainVotes","type":"uint256","internalType":"uint256"}],"stateMutability":"view"},{"type":"function","name":"propose","inputs":[{"name":"targets","type":"address[]","internalType":"address[]"},{"name":"values","type":"uint256[]","internalType":"uint256[]"},{"name":"calldatas","type":"bytes[]","internalType":"bytes[]"},{"name":"description","type":"string","internalType":"string"}],"outputs":[{"name":"","type":"uint256","internalType":"uint256"}],"stateMutability":"nonpayable"},{"type":"function","name":"queue","inputs":[{"name":"targets","type":"address[]","internalType":"address[]"},{"name":"values","type":"uint256[]","internalType":"uint256[]"},{"name":"calldatas","type":"bytes[]","internalType":"bytes[]"},{"name":"descriptionHash","type":"bytes32","internalType":"bytes32"}],"outputs":[{"name":"","type":"uint256","internalType":"uint256"}],"stateMutability":"nonpayable"},{"type":"function","name":"quorum","inputs":[{"name":"blockNumber","type":"uint256","internalType":"uint256"}],"outputs":[{"name":"","type":"uint256","internalType":"uint256"}],"stateMutability":"view"},{"type":"function","name":"quorumDenominator","inputs":[],"outputs":[{"name":"","type":"uint256","internalType":"uint256"}],"stateMutability":"view"},{"type":"function","name":"quorumNumerator","inputs":[{"name":"timepoint","type":"uint256","internalType":"uint256"}],"outputs":[{"name":"","type":"uint256","internalType":"uint256"}],"stateMutability":"view"},{"type":"function","name":"quorumNumerator","inputs":[],"outputs":[{"name":"","type":"uint256","internalType":"uint256"}],"stateMutability":"view"},{"type":"function","name":"relay","inputs":[{"name":"target","type":"address","internalType":"address"},{"name":"value","type":"uint256","internalType":"uint256"},{"name":"data","type":"bytes","internalType":"bytes"}],"outputs":[],"stateMutability":"payable"},{"type":"function","name":"setProposalThreshold","inputs":[{"name":"newProposalThreshold","type":"uint256","internalType":"uint256"}],"outputs":[],"stateMutability":"nonpayable"},{"type":"function","name":"setVotingDelay","inputs":[{"name":"newVotingDelay","type":"uint48","internalType":"uint48"}],"outputs":[],"stateMutability":"nonpayable"},{"type":"function","name":"setVotingPeriod","inputs":[{"name":"newVotingPeriod","type":"uint32","internalType":"uint32"}],"outputs":[],"stateMutability":"nonpayable"},{"type":"function","name":"state","inputs":[{"name":"proposalId","type":"uint256","internalType":"uint256"}],"outputs":[{"name":"","type":"uint8","internalType":"enum IGovernor.ProposalState"}],"stateMutability":"view"},{"type":"function","name":"supportsInterface","inputs":[{"name":"interfaceId","type":"bytes4","internalType":"bytes4"}],"outputs":[{"name":"","type":"bool","internalType":"bool"}],"stateMutability":"view"},{"type":"function","name":"timelock","inputs":[],"outputs":[{"name":"","type":"address","internalType":"address"}],"stateMutability":"view"},{"type":"function","name":"token","inputs":[],"outputs":[{"name":"","type":"address","internalType":"contract IERC5805"}],"stateMutability":"view"},{"type":"function","name":"updateQuorumNumerator","inputs":[{"name":"newQuorumNumerator","type":"uint256","internalType":"uint256"}],"outputs":[],"stateMutability":"nonpayable"},{"type":"function","name":"updateTimelock","inputs":[{"name":"newTimelock","type":"address","internalType":"contract TimelockController"}],"outputs":[],"stateMutability":"nonpayable"},{"type":"function","name":"version","inputs":[],"outputs":[{"name":"","type":"string","internalType":"string"}],"stateMutability":"view"},{"type":"function","name":"votingDelay","inputs":[],"outputs":[{"name":"","type":"uint256","internalType":"uint256"}],"stateMutability":"view"},{"type":"function","name":"votingPeriod","inputs":[],"outputs":[{"name":"","type":"uint256","internalType":"uint256"}],"stateMutability":"view"},{"type":"event","name":"EIP712DomainChanged","inputs":[],"anonymous":false},{"type":"event","name":"ProposalCanceled","inputs":[{"name":"proposalId","type":"uint256","indexed":false,"internalType":"uint256"}],"anonymous":false},{"type":"event","name":"ProposalCreated","inputs":[{"name":"proposalId","type":"uint256","indexed":false,"internalType":"uint256"},{"name":"proposer","type":"address","indexed":false,"internalType":"address"},{"name":"targets","type":"address[]","indexed":false,"internalType":"address[]"},{"name":"values","type":"uint256[]","indexed":false,"internalType":"uint256[]"},{"name":"signatures","type":"string[]","indexed":false,"internalType":"string[]"},{"name":"calldatas","type":"bytes[]","indexed":false,"internalType":"bytes[]"},{"name":"voteStart","type":"uint256","indexed":false,"internalType":"uint256"},{"name":"voteEnd","type":"uint256","indexed":false,"internalType":"uint256"},{"name":"description","type":"string","indexed":false,"internalType":"string"}],"anonymous":false},{"type":"event","name":"ProposalExecuted","inputs":[{"name":"proposalId","type":"uint256","indexed":false,"internalType":"uint256"}],"anonymous":false},{"type":"event","name":"ProposalQueued","inputs":[{"name":"proposalId","type":"uint256","indexed":false,"internalType":"uint256"},{"name":"etaSeconds","type":"uint256","indexed":false,"internalType":"uint256"}],"anonymous":false},{"type":"event","name":"ProposalThresholdSet","inputs":[{"name":"oldProposalThreshold","type":"uint256","indexed":false,"internalType":"uint256"},{"name":"newProposalThreshold","type":"uint256","indexed":false,"internalType":"uint256"}],"anonymous":false},{"type":"event","name":"QuorumNumeratorUpdated","inputs":[{"name":"oldQuorumNumerator","type":"uint256","indexed":false,"internalType":"uint256"},{"name":"newQuorumNumerator","type":"uint256","indexed":false,"internalType":"uint256"}],"anonymous":false},{"type":"event","name":"TimelockChange","inputs":[{"name":"oldTimelock","type":"address","indexed":false,"internalType":"address"},{"name":"newTimelock","type":"address","indexed":false,"internalType":"address"}],"anonymous":false},{"type":"event","name":"VoteCast","inputs":[{"name":"voter","type":"address","indexed":true,"internalType":"address"},{"name":"proposalId","type":"uint256","indexed":false,"internalType":"uint256"},{"name":"support","type":"uint8","indexed":false,"internalType":"uint8"},{"name":"weight","type":"uint256","indexed":false,"internalType":"uint256"},{"name":"reason","type":"string","indexed":false,"internalType":"string"}],"anonymous":false},{"type":"event","name":"VoteCastWithParams","inputs":[{"name":"voter","type":"address","indexed":true,"internalType":"address"},{"name":"proposalId","type":"uint256","indexed":false,"internalType":"uint256"},{"name":"support","type":"uint8","indexed":false,"internalType":"uint8"},{"name":"weight","type":"uint256","indexed":false,"internalType":"uint256"},{"name":"reason","type":"string","indexed":false,"internalType":"string"},{"name":"params","type":"bytes","indexed":false,"internalType":"bytes"}],"anonymous":false},{"type":"event","name":"VotingDelaySet","inputs":[{"name":"oldVotingDelay","type":"uint256","indexed":false,"internalType":"uint256"},{"name":"newVotingDelay","type":"uint256","indexed":false,"internalType":"uint256"}],"anonymous":false},{"type":"event","name":"VotingPeriodSet","inputs":[{"name":"oldVotingPeriod","type":"uint256","indexed":false,"internalType":"uint256"},{"name":"newVotingPeriod","type":"uint256","indexed":false,"internalType":"uint256"}],"anonymous":false},{"type":"error","name":"CheckpointUnorderedInsertion","inputs":[]},{"type":"error","name":"ERC6372InconsistentClock","inputs":[]},{"type":"error","name":"FailedCall","inputs":[]},{"type":"error","name":"GovernorAlreadyCastVote","inputs":[{"name":"voter","type":"address","internalType":"address"}]},{"type":"error","name":"GovernorAlreadyQueuedProposal","inputs":[{"name":"proposalId","type":"uint256","internalType":"uint256"}]},{"type":"error","name":"GovernorDisabledDeposit","inputs":[]},{"type":"error","name":"GovernorInsufficientProposerVotes","inputs":[{"name":"proposer","type":"address","internalType":"address"},{"name":"votes","type":"uint256","internalType":"uint256"},{"name":"threshold","type":"uint256","internalType":"uint256"}]},{"type":"error","name":"GovernorInvalidProposalLength","inputs":[{"name":"targets","type":"uint256","internalType":"uint256"},{"name":"calldatas","type":"uint256","internalType":"uint256"},{"name":"values","type":"uint256","internalType":"uint256"}]},{"type":"error","name":"GovernorInvalidQuorumFraction","inputs":[{"name":"quorumNumerator","type":"uint256","internalType":"uint256"},{"name":"quorumDenominator","type":"uint256","internalType":"uint256"}]},{"type":"error","name":"GovernorInvalidSignature","inputs":[{"name":"voter","type":"address","internalType":"address"}]},{"type":"error","name":"GovernorInvalidVoteParams","inputs":[]},{"type":"error","name":"GovernorInvalidVoteType","inputs":[]},{"type":"error","name":"GovernorInvalidVotingPeriod","inputs":[{"name":"votingPeriod","type":"uint256","internalType":"uint256"}]},{"type":"error","name":"GovernorNonexistentProposal","inputs":[{"name":"proposalId","type":"uint256","internalType":"uint256"}]},{"type":"error","name":"GovernorOnlyExecutor","inputs":[{"name":"account","type":"address","internalType":"address"}]},{"type":"error","name":"GovernorQueueNotImplemented","inputs":[]},{"type":"error","name":"GovernorRestrictedProposer","inputs":[{"name":"proposer","type":"address","internalType":"address"}]},{"type":"error","name":"GovernorUnableToCancel","inputs":[{"name":"proposalId","type":"uint256","internalType":"uint256"},{"name":"account","type":"address","internalType":"address"}]},{"type":"error","name":"GovernorUnexpectedProposalState","inputs":[{"name":"proposalId","type":"uint256","internalType":"uint256"},{"name":"current","type":"uint8","internalType":"enum IGovernor.ProposalState"},{"name":"expectedStates","type":"bytes32","internalType":"bytes32"}]},{"type":"error","name":"InvalidAccountNonce","inputs":[{"name":"account","type":"address","internalType":"address"},{"name":"currentNonce","type":"uint256","internalType":"uint256"}]},{"type":"error","name":"InvalidShortString","inputs":[]},{"type":"error","name":"SafeCastOverflowedUintDowncast","inputs":[{"name":"bits","type":"uint8","internalType":"uint8"},{"name":"value","type":"uint256","internalType":"uint256"}]},{"type":"error","name":"StringTooLong","inputs":[{"name":"str","type":"string","internalType":"string"}]}],"bytecode":{"object":"0x61018060405234620000b457620000206200001962000151565b90620001c5565b604051613bb0908162000b94823960805181613722015260a051816137d7015260c051816136ec015260e051816137710152610100518161379701526101205181611375015261014051816113a10152610160518181816115ee01528181611a8b01528181611bbf01528181611c4801528181611cfb01528181611f4c0152818161200a01528181612a7601526136930152f35b5f80fd5b634e487b7160e01b5f52604160045260245ffd5b604081019081106001600160401b03821117620000e857604052565b620000b8565b60c081019081106001600160401b03821117620000e857604052565b601f909101601f19168101906001600160401b03821190821017620000e857604052565b604051906200013d82620000cc565b565b6001600160a01b03811603620000b457565b62004784906040823803928382519485926200016e82856200010a565b833981010312620000b457602082519262000189846200013f565b01519162000197836200013f565b9190565b60405190620001aa82620000cc565b60128252565b60405190620001bf82620000cc565b60018252565b906200013d91620002a0620001d96200019b565b6020810171283932b234b1ba34b7b723b7bb32b93737b960711b8152620001ff620001b0565b906020820190603160f81b82526200021784620006e5565b610120526200022683620007eb565b6101405283519020918260e05251902080610100524660a0526040519060208201927f8b73c3c69bb8fe3d512ecc4cf759cc79239f7b179b0ffacaa9a75d522b39400f8452604083015260608201524660808201523060a082015260a081526200029081620000ee565b5190206080523060c05262000418565b620002aa620005fc565b620002b46200064b565b620002be620006a1565b6001600160a01b031661016052620002d56200055d565b6200050e565b90600182811c921680156200030b575b6020831014620002f757565b634e487b7160e01b5f52602260045260245ffd5b91607f1691620002eb565b601f811162000323575050565b60035f5260205f20906020601f840160051c8301931062000360575b601f0160051c01905b81811062000354575050565b5f815560010162000348565b90915081906200033f565b601f811162000378575050565b5f805260205f20906020601f840160051c83019310620003b4575b601f0160051c01905b818110620003a8575050565b5f81556001016200039c565b909150819062000393565b90601f8211620003cd575050565b60019160015f5260205f20906020601f840160051c830193106200040d575b601f0160051c01905b8181106200040257505050565b5f81558201620003f5565b9091508190620003ec565b80519091906001600160401b038111620000e85762000444816200043e600354620002db565b62000316565b602080601f831160011462000489575081906200047893945f926200047d575b50508160011b915f199060031b1c19161790565b600355565b015190505f8062000464565b60035f52601f198316949091907fc2575a0e9e593c00f959f8c92f12db2869c3395a3b0502d05e2516446f71f85b925f905b878210620004f5575050836001959610620004dc575b505050811b01600355565b01515f1960f88460031b161c191690555f8080620004d1565b80600185968294968601518155019501930190620004bb565b600b547f08f74ea46ef7894f65eabfb5e6e695de773a000b47c529ab559178069b226401604060018060a01b038094169381519084168152846020820152a16001600160a01b03191617600b55565b600a5480620005a957505f805160206200476483398151915260405f5b6200058e62000588620008f3565b62000a90565b505081516001600160d01b03909116815260046020820152a1565b5f19908082810111620005e857600a5f52015f805160206200474483398151915201545f80516020620047648339815191529060409060301c6200057a565b634e487b7160e01b5f52601160045260245ffd5b6008546040519065ffffffffffff811682527fc565b045403dc03c2eea82b81a0465edad9e2e7fc4d97e11421c209da93d7a936040611c2093846020820152a165ffffffffffff191617600855565b67c4e00000000000006008547f7e3f7f0708a84de9203036abaa450dccc85ad5ff52f78c170f3edb55cf5e88286040805163ffffffff8460301c16815261c4e06020820152a163ffffffff60301b191617600855565b6007546040519081527fccb45da8d5717e6c4544694297c4ba5cf151d455c9bb0ed4fc7a38411bc05461604069d3c21bcecceda100000092836020820152a1600755565b90815160208082105f1462000705575050906200070290620009a2565b90565b6001600160401b038211620000e8576200072b82620007255f54620002db565b6200036b565b602090601f831160011462000765575081906200075e93945f926200047d5750508160011b915f199060031b1c19161790565b5f5560ff90565b5f8052601f198316949091907f290decd9548b62a8d60345a988386fc84ba6bc95484008f6362f93160ef3e563925f905b878210620007d2575050836001959610620007b9575b505050811b015f5560ff90565b01515f1960f88460031b161c191690555f8080620007ac565b8060018596829496860151815501950193019062000796565b908151602090602081105f146200080a575050906200070290620009a2565b6001600160401b038111620000e85760019162000833826200082d8554620002db565b620003bf565b602090601f83116001146200086e57508190620008679394955f926200047d5750508160011b915f199060031b1c19161790565b905560ff90565b60015f52601f198316959091907fb10e2d527612073b26eecdfd717e6a320cf44b4afac2b0732d9fcbe2b7fa0cf6925f905b888210620008db5750508385969710620008c2575b505050811b01905560ff90565b01515f1960f88460031b161c191690555f8080620008b5565b808785968294968601518155019501930190620008a0565b610160516040516324776b7d60e21b815290602090829060049082906001600160a01b03165afa5f918162000935575b50620007025750620007024362000b60565b9091506020813d60201162000976575b8162000954602093836200010a565b81010312620000b4575165ffffffffffff81168103620000b457905f62000923565b3d915062000945565b60208151910151906020811062000994575090565b5f199060200360031b1b1690565b601f815111620009bd57620009b7816200097f565b90511790565b6040519063305a27a960e01b82528160208060048301528251908160248401525f935b82851062000a03575050604492505f838284010152601f80199101168101030190fd5b8481018201518686016044015293810193859350620009e0565b5f19810191908211620005e857565b600a5468010000000000000000811015620000e8576001810180600a5581101562000a7c57600a5f5260205f20019065ffffffffffff81511690602065ffffffffffff1991015160301b16179055565b634e487b7160e01b5f52603260045260245ffd5b600a54801562000b455762000aa962000ac09162000a1d565b600a5f525f80516020620047448339815191520190565b80549165ffffffffffff80821690841681811162000b33570362000afe5750805465ffffffffffff1666040000000000001790555b60301c90600490565b62000b2d915062000b2062000b126200012e565b65ffffffffffff9092168252565b6004602082015262000a2c565b62000af5565b604051632520601d60e01b8152600490fd5b5062000b599062000b2062000b126200012e565b5f90600490565b65ffffffffffff9081811162000b74571690565b604490604051906306dfcc6560e41b8252603060048301526024820152fdfe60806040526004361015610022575b3615610018575f80fd5b6100206121d1565b005b5f3560e01c806301ffc9a71461032c57806302a251a31461032757806306f3f9e61461032257806306fdde031461031d578063143489d014610318578063150b7a0214610313578063160cbed71461030e5780632656227d146103095780632d63f693146103045780632fe3e261146102ff5780633932abb1146102fa5780633e4f49e6146102f557806343859632146102f0578063452115d6146102eb5780634bf5d7e9146102e6578063544ffc9c146102e157806354fd4d50146102dc57806356781388146102d75780635b8d0e0d146102d25780635f398a14146102cd57806360c4247f146102c857806379051887146102c35780637b3c71d3146102be5780637d5e81e2146102b95780637ecebe00146102b457806384b0196e146102af5780638ff262e3146102aa57806391ddadf4146102a557806397c3d334146102a05780639a802a6d1461029b578063a7713a7014610296578063a890c91014610291578063a8f8a6681461026e578063a9a952941461028c578063ab58fb8e14610287578063b58131b014610282578063bc197c811461027d578063c01f9e3714610278578063c28bc2fa14610273578063c59057e41461026e578063d33219b414610269578063dd4e2ba514610264578063deaaa7cc1461025f578063e540d01d1461025a578063eb9019d414610255578063ece40cc114610250578063f23a6e611461024b578063f8ce560a146102465763fc0c546a0361000e57611c33565b611b8e565b611b23565b611ace565b611a30565b611989565b61194f565b6118f2565b6118ca565b6116f0565b611838565b61181a565b61177a565b61175d565b611728565b61170c565b61167c565b611651565b611580565b611565565b61153b565b611424565b61135d565b6112ef565b611256565b611201565b61118f565b611161565b6110f2565b61106a565b610fef565b610f9e565b610f53565b610f24565b610e88565b610e33565b610e06565b610db1565b610d77565b610d42565b610be2565b61099f565b610760565b6105e8565b610508565b6103e6565b6103c0565b346103b25760203660031901126103b25760043563ffffffff60e01b81168091036103b2576020906366defe7760e11b81149081156103a1575b8115610390575b811561037f575b506040519015158152f35b6301ffc9a760e01b1490505f610374565b630271189760e51b8114915061036d565b6332a2ad4360e11b81149150610366565b5f80fd5b5f9103126103b257565b346103b2575f3660031901126103b257602063ffffffff60085460301c16604051908152f35b346103b25760203660031901126103b2576004356104026121e5565b6064811161048f576001600160d01b03908161041c612ad0565b16610425611ff5565b9280831161046f577f0553476bf02ef2726e8ce5ced78d63e26e602e4a2257b1f559418e24b46339979361045b91841690613581565b5050604080519182526020820192909252a1005b6040516306dfcc6560e41b815260d0600482015260248101849052604490fd5b6044906040519063243e544560e01b8252600482015260646024820152fd5b5f5b8381106104bf5750505f910152565b81810151838201526020016104b0565b906020916104e8815180928185528580860191016104ae565b601f01601f1916010190565b9060206105059281815201906104cf565b90565b346103b2575f3660031901126103b2576040515f60035461052881611c77565b808452906020906001908181169081156105be5750600114610565575b61056185610555818703826106c4565b604051918291826104f4565b0390f35b60035f90815293507fc2575a0e9e593c00f959f8c92f12db2869c3395a3b0502d05e2516446f71f85b5b8385106105ab5750505050810160200161055582610561610545565b805486860184015293820193810161058f565b8695506105619693506020925061055594915060ff191682840152151560051b8201019293610545565b346103b25760203660031901126103b2576004355f526004602052602060018060a01b0360405f205416604051908152f35b6001600160a01b038116036103b257565b634e487b7160e01b5f52604160045260245ffd5b6001600160401b03811161065257604052565b61062b565b604081019081106001600160401b0382111761065257604052565b602081019081106001600160401b0382111761065257604052565b60c081019081106001600160401b0382111761065257604052565b61010081019081106001600160401b0382111761065257604052565b90601f801991011681019081106001600160401b0382111761065257604052565b604051906106f282610657565b565b6001600160401b03811161065257601f01601f191660200190565b92919261071b826106f4565b9161072960405193846106c4565b8294818452818301116103b2578281602093845f960137010152565b9080601f830112156103b2578160206105059335910161070f565b346103b25760803660031901126103b25761077c60043561061a565b61078760243561061a565b6064356001600160401b0381116103b2576107a6903690600401610745565b50600b546001600160a01b031630036107cb57604051630a85bd0160e11b8152602090f35b604051637485328f60e11b8152600490fd5b6001600160401b0381116106525760051b60200190565b9080601f830112156103b257602090823561080e816107dd565b9361081c60405195866106c4565b81855260208086019260051b8201019283116103b257602001905b828210610845575050505090565b83809183356108538161061a565b815201910190610837565b9080601f830112156103b2576020908235610878816107dd565b9361088660405195866106c4565b81855260208086019260051b8201019283116103b257602001905b8282106108af575050505090565b813581529083019083016108a1565b81601f820112156103b2578035916020916108d8846107dd565b936108e660405195866106c4565b808552838086019160051b830101928084116103b257848301915b8483106109115750505050505090565b82356001600160401b0381116103b257869161093284848094890101610745565b815201920191610901565b60806003198201126103b2576001600160401b03916004358381116103b25782610969916004016107f4565b926024358181116103b257836109819160040161085e565b926044359182116103b257610998916004016108be565b9060643590565b346103b2576109ad3661093d565b6109bb81838587969761216d565b926109c584612276565b50600b546109e3906001600160a01b03165b6001600160a01b031690565b9260409586519363793d064960e11b855260209081866004818a5afa958615610b91575f96610bc3575b506bffffffffffffffffffffffff193060601b161895818951809263b1c5f42760e01b82528180610a448c8a8a8d60048601612b60565b03915afa918215610b91575f92610b96575b5050610a6a875f52600c60205260405f2090565b55600b54610a80906001600160a01b03166109d7565b90813b156103b2575f8094610aab878b51998a97889687956308f2a0bb60e41b875260048701612ba5565b03925af1908115610b9157610acf92610aca92610b78575b5042612750565b613146565b65ffffffffffff811615610b6757917f9a2e42fd6722813d69113e7d0079d3d940171428df7373df9c7f7617cfda2892610b5684610b38610561966001610b1e885f52600460205260405f2090565b019065ffffffffffff1665ffffffffffff19825416179055565b835185815265ffffffffffff90911660208201529081906040820190565b0390a1519081529081906020820190565b8251634844252360e11b8152600490fd5b80610b85610b8b9261063f565b806103b6565b5f610ac3565b611cdc565b610bb59250803d10610bbc575b610bad81836106c4565b810190612a36565b5f80610a56565b503d610ba3565b610bdb919650823d8411610bbc57610bad81836106c4565b945f610a0d565b610beb3661093d565b610bf981838587959761216d565b92610c03846122c8565b50610c2c610c19855f52600460205260405f2090565b805460ff60f01b1916600160f01b179055565b600b546001600160a01b03939084163003610cdd575b94610c5292916105619686612c43565b600b543091166001600160a01b0316141580610cb8575b610caa575b6040518181527f712ae1383f79ac853f8d882153778e0260ef8f03b504e2866e0593e04d2b291f90602090a16040519081529081906020820190565b610cb35f600555565b610c6e565b50610cd8610cd46005546001600160801b0381169060801c1490565b1590565b610c69565b929093915f5b8451811015610d385760019030610d0d6109d7610d00848a611cc3565b516001600160a01b031690565b14610d19575b01610ce3565b610d33610d26828a611cc3565b516020815191012061231a565b610d13565b5091939092610c42565b346103b25760203660031901126103b2576004355f526004602052602065ffffffffffff60405f205460a01c16604051908152f35b346103b2575f3660031901126103b25760206040517f3e83946653575f9a39005e1545185629e92736b7528ab20ca3816f315424a8118152f35b346103b2575f3660031901126103b257602065ffffffffffff60085416604051908152f35b634e487b7160e01b5f52602160045260245ffd5b60081115610df457565b610dd6565b906008821015610df45752565b346103b25760203660031901126103b2576020610e24600435612354565b610e316040518092610df9565bf35b346103b25760403660031901126103b257602060ff610e7c602435610e578161061a565b6004355f5260098452600360405f20019060018060a01b03165f5260205260405f2090565b54166040519015158152f35b346103b257610e963661093d565b92610ea68483858496959661216d565b610eaf81612354565b6008811015610df4571580610f07575b15610ee357610561610ed386868686612dd6565b6040519081529081906020820190565b604051638fe5d8a960e01b81526004810191909152336024820152604490fd5b0390fd5b50805f52600460205260018060a01b0360405f2054163314610ebf565b346103b2575f3660031901126103b257610561610f3f611ce7565b6040519182916020835260208301906104cf565b346103b25760203660031901126103b2576004355f52600960205260405f20805461056160026001840154930154604051938493846040919493926060820195825260208201520152565b346103b2575f3660031901126103b257610561604051610fbd81610657565b60018152603160f81b60208201526040519182916020835260208301906104cf565b6024359060ff821682036103b257565b346103b25760403660031901126103b257602061103561100d610fdf565b60405161101981610672565b5f81526040519161102983610672565b5f8352336004356124dd565b604051908152f35b9181601f840112156103b2578235916001600160401b0383116103b257602083818601950101116103b257565b346103b25760c03660031901126103b257611083610fdf565b604435906110908261061a565b6001600160401b03906064358281116103b2576110b190369060040161103d565b6084358481116103b2576110c9903690600401610745565b9160a4359485116103b257610561956110e9610ed3963690600401610745565b94600435611dcf565b346103b25760803660031901126103b25761110b610fdf565b6001600160401b03906044358281116103b25761112c90369060040161103d565b90916064359384116103b2576111576110359361114f6020963690600401610745565b93369161070f565b90336004356124dd565b346103b25760203660031901126103b25760206110356004356125f9565b65ffffffffffff8116036103b257565b346103b25760203660031901126103b2576004356111ac8161117f565b6111b46121e5565b6008547fc565b045403dc03c2eea82b81a0465edad9e2e7fc4d97e11421c209da93d7a93604065ffffffffffff81519481851686521693846020820152a165ffffffffffff191617600855005b346103b25760603660031901126103b25761121a610fdf565b6044356001600160401b0381116103b25760209161124961124261103593369060040161103d565b369161070f565b6040519161102983610672565b346103b25760803660031901126103b2576001600160401b036004358181116103b2576112879036906004016107f4565b906024358181116103b2576112a090369060040161085e565b916044358281116103b2576112b99036906004016108be565b6064359283116103b257366023840112156103b257610561936112e9610ed394369060248160040135910161070f565b92611ed5565b346103b25760203660031901126103b25760043561130c8161061a565b60018060a01b03165f526002602052602060405f2054604051908152f35b9081518082526020808093019301915f5b828110611349575050505090565b83518552938101939281019260010161133b565b346103b2575f3660031901126103b2576113f66113997f0000000000000000000000000000000000000000000000000000000000000000613264565b6105616113c57f0000000000000000000000000000000000000000000000000000000000000000613361565b611404604051916113d583610672565b5f8352604051958695600f60f81b875260e0602088015260e08701906104cf565b9085820360408701526104cf565b904660608501523060808501525f60a085015283820360c085015261132a565b346103b25760803660031901126103b257600435611440610fdf565b906044359161144e8361061a565b6064356001600160401b0381116103b257610cd46114736114ff923690600401610745565b6001600160a01b0386165f9081526002602052604090208054600181019091556114f99060405160208101917ff2aad550cf55f045cb27e9c559f9889fdfb6e6cdaa032301d6ea397784ae51d7835288604083015260ff8816606083015260018060a01b038a16608083015260a082015260a081526114f18161068d565b519020612f75565b86612fa5565b61151a5790610ed39161056193611514611dbd565b92612462565b6040516394ab6c0760e01b81526001600160a01b0384166004820152602490fd5b346103b2575f3660031901126103b2576020611555611ff5565b65ffffffffffff60405191168152f35b346103b2575f3660031901126103b257602060405160648152f35b346103b25760603660031901126103b25760043561159d8161061a565b6044356001600160401b0381116103b2576044916115c16020923690600401610745565b50604051630748d63560e31b81526001600160a01b039182166004820152602480359082015292839182907f0000000000000000000000000000000000000000000000000000000000000000165afa8015610b9157610561915f91611632575b506040519081529081906020820190565b61164b915060203d602011610bbc57610bad81836106c4565b5f611621565b346103b2575f3660031901126103b25760206001600160d01b03611673612ad0565b16604051908152f35b346103b25760203660031901126103b2576004356116998161061a565b6116a16121e5565b600b547f08f74ea46ef7894f65eabfb5e6e695de773a000b47c529ab559178069b226401604060018060a01b038094169381519084168152846020820152a16001600160a01b03191617600b55005b346103b25760206110356117033661093d565b9291909161216d565b346103b25760203660031901126103b257602060405160018152f35b346103b25760203660031901126103b2576004355f526004602052602065ffffffffffff600160405f20015416604051908152f35b346103b2575f3660031901126103b2576020600754604051908152f35b346103b25760a03660031901126103b25761179660043561061a565b6117a160243561061a565b6001600160401b036044358181116103b2576117c190369060040161085e565b506064358181116103b2576117da90369060040161085e565b506084359081116103b2576117f3903690600401610745565b506105616117ff612088565b6040516001600160e01b031990911681529081906020820190565b346103b25760203660031901126103b25760206110356004356120a5565b60603660031901126103b2576004356118508161061a565b604435906001600160401b0382116103b2575f809161187661002094369060040161103d565b9061187f6121e5565b81604051928392833781018481520391602435905af13d156118c2573d906118a6826106f4565b916118b460405193846106c4565b82523d5f602084013e612b14565b606090612b14565b346103b2575f3660031901126103b257600b546040516001600160a01b039091168152602090f35b346103b2575f3660031901126103b25761056160405161191181610657565b602081527f737570706f72743d627261766f2671756f72756d3d666f722c6162737461696e60208201526040519182916020835260208301906104cf565b346103b2575f3660031901126103b25760206040517ff2aad550cf55f045cb27e9c559f9889fdfb6e6cdaa032301d6ea397784ae51d78152f35b346103b25760203660031901126103b25760043563ffffffff808216918281036103b2576119b56121e5565b8215611a18577f7e3f7f0708a84de9203036abaa450dccc85ad5ff52f78c170f3edb55cf5e8828604069ffffffff00000000000093600854958251918760301c1682526020820152a160301b169069ffffffff0000000000001916176008555f80f35b60405163f1cfbf0560e01b81525f6004820152602490fd5b346103b25760403660031901126103b25760446020600435611a518161061a565b5f604051611a5e81610672565b52604051630748d63560e31b81526001600160a01b039182166004820152602480359082015292839182907f0000000000000000000000000000000000000000000000000000000000000000165afa8015610b9157610561915f9161163257506040519081529081906020820190565b346103b25760203660031901126103b257600435611aea6121e5565b60075460408051918252602082018390527fccb45da8d5717e6c4544694297c4ba5cf151d455c9bb0ed4fc7a38411bc0546191a1600755005b346103b25760a03660031901126103b257611b3f60043561061a565b611b4a60243561061a565b6084356001600160401b0381116103b257611b69903690600401610745565b50600b546001600160a01b031630036107cb5760405163f23a6e6160e01b8152602090f35b346103b25760203660031901126103b257604051632394e7a360e21b815260048035908201819052906020816024817f00000000000000000000000000000000000000000000000000000000000000006001600160a01b03165afa8015610b915761056192610ed3925f92611c0e575b50611c08906125f9565b9061343d565b611c08919250611c2c9060203d602011610bbc57610bad81836106c4565b9190611bfe565b346103b2575f3660031901126103b2576040517f00000000000000000000000000000000000000000000000000000000000000006001600160a01b03168152602090f35b90600182811c92168015611ca5575b6020831014611c9157565b634e487b7160e01b5f52602260045260245ffd5b91607f1691611c86565b634e487b7160e01b5f52603260045260245ffd5b8051821015611cd75760209160051b010190565b611caf565b6040513d5f823e3d90fd5b604051634bf5d7e960e01b81525f816004817f00000000000000000000000000000000000000000000000000000000000000006001600160a01b03165afa5f9181611d43575b506105055750610505611d3e611ff5565b612f11565b9091503d805f833e611d5581836106c4565b8101906020818303126103b2578051906001600160401b0382116103b2570181601f820112156103b2578051611d8a816106f4565b92611d9860405194856106c4565b818452602082840101116103b257611db691602080850191016104ae565b905f611d2d565b60405190611dca82610672565b5f8252565b939092919695610cd4611e8591611e7f8a611deb36878961070f565b6001600160a01b0382165f90815260026020526040902080546001810190915590602081519101208b5160208d0120906040519260208401947f3e83946653575f9a39005e1545185629e92736b7528ab20ca3816f315424a81186528d604086015260ff8d16606086015260018060a01b0316608085015260a084015260c083015260e082015260e081526114f1816106a8565b8a612fa5565b611ea057610505959691611e9a91369161070f565b926124dd565b6040516394ab6c0760e01b81526001600160a01b0388166004820152602490fd5b634e487b7160e01b5f52601160045260245ffd5b9193929093611ee482336126da565b15611fdd576007549485611f00575b6105059495503393612874565b65ffffffffffff5f1981611f12611ff5565b160190808211611fd8575f604051611f2981610672565b52604051630748d63560e31b8152336004820152911660248201526020816044817f00000000000000000000000000000000000000000000000000000000000000006001600160a01b03165afa908115610b91575f91611fb9575b50868110611f925750611ef3565b604051636121770b60e11b8152336004820152602481019190915260448101879052606490fd5b611fd2915060203d602011610bbc57610bad81836106c4565b5f611f84565b611ec1565b60405163d9b3955760e01b8152336004820152602490fd5b6040516324776b7d60e21b81526020816004817f00000000000000000000000000000000000000000000000000000000000000006001600160a01b03165afa5f918161204b575b50610505575061050543613146565b9091506020813d602011612080575b81612067602093836106c4565b810103126103b257516120798161117f565b905f61203c565b3d915061205a565b600b546001600160a01b031630036107cb5763bc197c8160e01b90565b5f52600460205260405f205465ffffffffffff908163ffffffff8260d01c169160a01c1601818111611fd8571690565b9081518082526020808093019301915f5b8281106120f4575050505090565b83516001600160a01b0316855293810193928101926001016120e6565b90808251908181526020809101926020808460051b8301019501935f915b84831061213f5750505050505090565b909192939495848061215d600193601f198682030187528a516104cf565b980193019301919493929061212f565b92906121b9926121cb926040519485926121a9612196602086019960808b5260a08701906120d5565b601f19968787830301604088015261132a565b9085858303016060860152612111565b906080830152039081018352826106c4565b51902090565b600b546001600160a01b031630036107cb57565b600b546001600160a01b031633810361223f57300361220057565b612209366106f4565b61221660405191826106c4565b3681526020810190365f83375f602036830101525190205b80612237612b3d565b0361222e5750565b6040516347096e4760e01b8152336004820152602490fd5b6040906122725f939594606083019683526020830190610df9565b0152565b61227f81612354565b906008821015610df4576010600160ff84161b161561229c575090565b6122bf606492604051926331b75e4d60e01b845260048401526024830190610df9565b60106044820152fd5b6122d181612354565b906008821015610df4576020600160ff84161b16156122ee575090565b612311606492604051926331b75e4d60e01b845260048401526024830190610df9565b60206044820152fd5b61232390612bf2565b1561232a57565b634e487b715f5260416020526024601cfd5b908160209103126103b2575180151581036103b25790565b61235d81612cca565b9061236782610dea565b6005820361245e5761238291505f52600c60205260405f2090565b54600b54612398906001600160a01b03166109d7565b604051632c258a9f60e11b81526004810183905260209291908381602481855afa908115610b91575f91612441575b50156123d557505050600590565b604051632ab0f52960e01b815260048101929092528290829060249082905afa918215610b91575f92612414575b50501561240f57600790565b600290565b6124339250803d1061243a575b61242b81836106c4565b81019061233c565b5f80612403565b503d612421565b6124589150843d861161243a5761242b81836106c4565b5f6123c7565b5090565b9161050593916040519361247585610672565b5f85526124dd565b93909260ff6124a99361050597958752166020860152604085015260a0606085015260a08401906104cf565b9160808184039101526104cf565b909260ff60809361050596958452166020830152604082015281606082015201906104cf565b9291906124e984612354565b6008811015610df4576002600160ff83161b16156125cb5750835f52600460205261254361253b61253561252a60405f2065ffffffffffff905460a01c1690565b65ffffffffffff1690565b83612a45565b83838761300c565b948051155f1461258f57506125897fb8e138887d0aa13bab447e82de9d5c1777041ecd21ca36ba824ff1e6c07ddda4938660405194859460018060a01b031697856124b7565b0390a290565b612589907fe2babfbac5889a709b63bb7f598b324e08bc5a4fb9ec647fb3cbc9ec07eb8712948760405195869560018060a01b0316988661247d565b6040516331b75e4d60e01b8152600481018690526064916125f0906024830190610df9565b60026044820152fd5b6126016130f1565b9265ffffffffffff925090821681106126235750505b6001600160d01b031690565b61262e919250613146565b600a54905f908260058111612686575b506126499350613962565b8061265557505f612617565b61267a61266461268192612ac2565b600a5f525f80516020613b5b8339815191520190565b5460301c90565b612617565b909261269182613837565b8203918211611fd85761264994600a5f5280835f80516020613b5b833981519152015416908516105f146126c85750915b5f61263e565b9291506126d490612742565b906126c2565b9080516034811061273a5760131981830101516001600160b01b03191669dc8f8d908f908c9a8dc360b01b0161273a57612719916029198201906131a4565b901591821561272757505090565b6001600160a01b03918216911614919050565b505050600190565b9060018201809211611fd857565b91908201809211611fd857565b90612767826107dd565b61277460405191826106c4565b8281528092612785601f19916107dd565b01905f5b82811061279557505050565b806060602080938501015201612789565b95926127da906127e8939b9a989996959261012090895260209c60018060a01b03168d8a01528060408a01528801906120d5565b90868203606088015261132a565b9784890360808601528251808a52818a019180808360051b8d01019501925f905b8382106128465750505050506105059697509061282d9184820360a0860152612111565b9360c083015260e08201526101008184039101526104cf565b909192939583806128658f93600194601f199082030186528a516104cf565b98019201920190939291612809565b91949390929461288c8651602088012082868661216d565b958351855190818114801590612a2b575b8015612a23575b6129fa57505065ffffffffffff94856128d76128c88a5f52600460205260405f2090565b5460a01c65ffffffffffff1690565b166129d3577f7d84a6263ae0d98d3329bd7b46bb4e8d6f98cd35a7adb45c274c8b7fd5ebd5e0956129ce9363ffffffff612920612912611ff5565b600854948086169116612750565b9260301c166129ac61293a8c5f52600460205260405f2090565b80546001600160a01b0319166001600160a01b038a1617815561298361295f86613146565b825465ffffffffffff60a01b191660a09190911b65ffffffffffff60a01b16178255565b61298c83613234565b815463ffffffff60d01b191660d09190911b63ffffffff60d01b16179055565b6129c06129b9895161275d565b9184612750565b936040519889988d8a6127a6565b0390a1565b876129dd81612354565b6040516331b75e4d60e01b8152918291610f039160048401612257565b8351604051630447b05d60e41b8152600481019290925260248201526044810191909152606490fd5b5080156128a4565b50835181141561289d565b908160209103126103b2575190565b604051630748d63560e31b81526001600160a01b0391821660048201526024810192909252602090829060449082907f0000000000000000000000000000000000000000000000000000000000000000165afa908115610b91575f91612aa9575090565b610505915060203d602011610bbc57610bad81836106c4565b5f19810191908211611fd857565b600a5480612add57505f90565b805f19810111611fd857600a5f527fc65a7bb8d6351c1cf70c95a316cc6a92839c986682d98bc35f958f4883f9d2a7015460301c90565b15612b1c5790565b805115612b2b57602081519101fd5b60405163d6bda27560e01b8152600490fd5b612b456134b4565b9015612b4e5790565b634e487b715f5260316020526024601cfd5b949392612b8c608093612b7e612b9a9460a08a5260a08a01906120d5565b9088820360208a015261132a565b908682036040880152612111565b935f60608201520152565b9192612bd460a094612bc6612be2949998979960c0875260c08701906120d5565b90858203602087015261132a565b908382036040850152612111565b945f606083015260808201520152565b6005548060801c9160018301926001600160801b0380931683851614612c3b575f52600660205260405f2055600554916001600160801b03199060801b16911617600555600190565b505050505f90565b9290939160018060a01b03600b541690813b156103b2575f93612c916040519788958694859463e38335e560e01b86526bffffffffffffffffffffffff193060601b16189260048601612b60565b039134905af1908115610b91575f92612cb892612cbb575b505f52600c60205260405f2090565b55565b612cc49061063f565b5f612ca9565b612cdc815f52600460205260405f2090565b5460ff8160f01c16612dcf5760f81c612dc957612d0761252a6128c8835f52600460205260405f2090565b8015612db057612d1861252a611ff5565b80911015612daa57612d29826120a5565b10612d345750600190565b612d40610cd482613651565b8015612d87575b15612d525750600390565b61252a6001612d6c612d79935f52600460205260405f2090565b015465ffffffffffff1690565b612d8257600490565b600590565b50612da5610cd4825f52600960205260405f20600181015490541090565b612d47565b50505f90565b604051636ad0607560e01b815260048101839052602490fd5b50600290565b5050600790565b90612de293929161216d565b612deb81612354565b6008811015610df457603b600160ff83161b1615612ee45750612e2e612e19825f52600460205260405f2090565b80546001600160f81b0316600160f81b179055565b6040518181527f789cf55be980739dad1d0699b93b58e806b51c9d96619bfa8fe0a28abaa7b30c90602090a1612e6c815f52600c60205260405f2090565b5480612e76575090565b600b54612e8b906001600160a01b03166109d7565b803b156103b25760405163c4d252f560e01b815260048101929092525f908290602490829084905af18015610b9157612ed1575b505f818152600c602052604081205590565b80610b85612ede9261063f565b5f612ebf565b90612f08606492604051926331b75e4d60e01b845260048401526024830190610df9565b603b6044820152fd5b65ffffffffffff80612f2243613146565b16911603612f6357604051612f3681610657565b601d81527f6d6f64653d626c6f636b6e756d6265722666726f6d3d64656661756c74000000602082015290565b6040516301bfc1c560e61b8152600490fd5b604290612f806136e9565b906040519161190160f01b8352600283015260228201522090565b60041115610df457565b9091813b612fcd57612fb791926137fd565b50612fc181612f9b565b15918261272757505090565b6020918160645f935160405192630b135d3f60e11b9788855260048501526040602485015286820190604485015e01915afa905f5114601f3d11161690565b613021909291925f52600960205260405f2090565b916003830161304a61304383839060018060a01b03165f5260205260405f2090565b5460ff1690565b6130d05761306e60ff939261307b929060018060a01b03165f5260205260405f2090565b805460ff19166001179055565b1680613092575061308d828254612750565b905590565b600181036130a9575060010161308d828254612750565b6002036130be5760020161308d828254612750565b6040516303599be160e11b8152600490fd5b6040516371c6af4960e01b81526001600160a01b0383166004820152602490fd5b600a548061310257505f905f905f90565b805f19810111611fd857600a5f527fc65a7bb8d6351c1cf70c95a316cc6a92839c986682d98bc35f958f4883f9d2a7015460019165ffffffffffff82169160301c90565b65ffffffffffff90818111613159571690565b604490604051906306dfcc6560e41b8252603060048301526024820152fd5b908160011b9180830460021490151715611fd857565b908160041b9180830460101490151715611fd857565b919082518211801561322b575b613204576131be81612742565b82118061320d575b6131d1901515613178565b60280180602811611fd857818303838111611fd85703613204576131f4926139bc565b90916001600160a01b0390911690565b5050505f905f90565b50828101602001516001600160f01b03191661060f60f31b146131c6565b508181116131b1565b63ffffffff90818111613245571690565b604490604051906306dfcc6560e41b8252602060048301526024820152fd5b60ff81146132a25760ff811690601f8211613290576040519161328683610657565b8252602082015290565b604051632cd44ac360e21b8152600490fd5b506040515f815f54916132b483611c77565b8083529260209060019081811690811561333d57506001146132df575b5050610505925003826106c4565b9150925f80527f290decd9548b62a8d60345a988386fc84ba6bc95484008f6362f93160ef3e563935f925b82841061332557506105059450505081016020015f806132d1565b8554878501830152948501948694509281019261330a565b9150506020925061050594915060ff191682840152151560051b8201015f806132d1565b60ff81146133835760ff811690601f8211613290576040519161328683610657565b506040515f8160019160015461339881611c77565b808452936020916001811690811561333d57506001146133c0575050610505925003826106c4565b91509260015f527fb10e2d527612073b26eecdfd717e6a320cf44b4afac2b0732d9fcbe2b7fa0cf6935f925b82841061340757506105059450505081016020015f806132d1565b855487850183015294850194869450928101926133ec565b8115613429570490565b634e487b7160e01b5f52601260045260245ffd5b5f19828209828202918280831092039180830392146134aa578160641115613498577f5c28f5c28f5c28f5c28f5c28f5c28f5c28f5c28f5c28f5c28f5c28f5c28f5c29936064910990828211900360fe1b910360021c170290565b634e487b715f5260116020526024601cfd5b5050606491500490565b6005546001600160801b03918282169160801c82146134f957600192825f526006602052600160405f20935f8554955501166001600160801b03196005541617600555565b5f9250829150565b600a5490600160401b821015610652576001820180600a55821015611cd7576106f291600a5f525f80516020613b5b833981519152019061355f65ffffffffffff825116839065ffffffffffff1665ffffffffffff19825416179055565b60200151815465ffffffffffff1660309190911b65ffffffffffff1916179055565b600a5491929180156136285761266461359991612ac2565b9081549165ffffffffffff90818416918316808311613616578692036135de576135d792509065ffffffffffff82549181199060301b169116179055565b60301c9190565b5050613611906135fd6135ef6106e5565b65ffffffffffff9092168252565b6001600160d01b0385166020820152613501565b6135d7565b604051632520601d60e01b8152600490fd5b5061364c906136386135ef6106e5565b6001600160d01b0384166020820152613501565b5f9190565b5f52600960205260405f20600460205265ffffffffffff60405f205460a01c16604051632394e7a360e21b815281600482015260208160248160018060a01b037f0000000000000000000000000000000000000000000000000000000000000000165afa8015610b91576136e4926136d3925f92611c0e5750611c08906125f9565b916002600182015491015490612750565b101590565b307f00000000000000000000000000000000000000000000000000000000000000006001600160a01b031614806137d4575b15613744577f000000000000000000000000000000000000000000000000000000000000000090565b60405160208101907f8b73c3c69bb8fe3d512ecc4cf759cc79239f7b179b0ffacaa9a75d522b39400f82527f000000000000000000000000000000000000000000000000000000000000000060408201527f000000000000000000000000000000000000000000000000000000000000000060608201524660808201523060a082015260a081526121cb8161068d565b507f0000000000000000000000000000000000000000000000000000000000000000461461371b565b815191906041830361382d576138269250602082015190606060408401519301515f1a90613a66565b9192909190565b50505f9160029190565b600181111561050557600181600160801b811015613950575b6138f86138ee6138e46138da6138d06138c661390497600488600160401b6138ff9a1015613943575b640100000000811015613936575b62010000811015613929575b61010081101561391d575b6010811015613911575b1015613909575b60030260011c6138bf818b61341f565b0160011c90565b6138bf818a61341f565b6138bf818961341f565b6138bf818861341f565b6138bf818761341f565b6138bf818661341f565b809361341f565b821190565b900390565b60011b6138af565b811c9160021b916138a8565b60081c91811b9161389e565b60101c9160081b91613893565b60201c9160101b91613887565b60401c9160201b91613879565b50600160401b9050608082901c613850565b82821061396e57505090565b909180831860011c8184160190600a5f5265ffffffffffff80835f80516020613b5b833981519152015416908416105f146139ac5750915b90613962565b92506139b790612742565b6139a6565b9290926139c884612742565b831180613a48575b6139e26139e991949293941515613178565b5f95612750565b915b8183106139fb5750505060019190565b9092919360ff613a1c613a176020888601015160ff60f81b1690565b613ae8565b1690600f8211613a3d5790613a3260019261318e565b0194019192906139eb565b505f94508493505050565b50602084820101516001600160f01b03191661060f60f31b146139d0565b91907f7fffffffffffffffffffffffffffffff5d576e7357a4501ddfe92f46681b20a08411613add579160209360809260ff5f9560405194855216868401526040830152606082015282805260015afa15610b91575f516001600160a01b03811615613ad357905f905f90565b505f906001905f90565b5050505f9160039190565b60f81c602f811180613b50575b15613b0457602f190160ff1690565b6060811180613b46575b15613b1d576056190160ff1690565b6040811180613b3c575b15613b36576036190160ff1690565b5060ff90565b5060478110613b27565b5060678110613b0e565b50603a8110613af556fec65a7bb8d6351c1cf70c95a316cc6a92839c986682d98bc35f958f4883f9d2a8a264697066735822122051f02a60c87573e5e363152e225e810c423e314ef6e396991b4565e2e240848c64736f6c63430008180033c65a7bb8d6351c1cf70c95a316cc6a92839c986682d98bc35f958f4883f9d2a80553476bf02ef2726e8ce5ced78d63e26e602e4a2257b1f559418e24b4633997","linkReferences":{}},"methodIdentifiers":{"BALLOT_TYPEHASH()":"deaaa7cc","CLOCK_MODE()":"4bf5d7e9","COUNTING_MODE()":"dd4e2ba5","EXTENDED_BALLOT_TYPEHASH()":"2fe3e261","cancel(address[],uint256[],bytes[],bytes32)":"452115d6","castVote(uint256,uint8)":"56781388","castVoteBySig(uint256,uint8,address,bytes)":"8ff262e3","castVoteWithReason(uint256,uint8,string)":"7b3c71d3","castVoteWithReasonAndParams(uint256,uint8,string,bytes)":"5f398a14","castVoteWithReasonAndParamsBySig(uint256,uint8,address,string,bytes,bytes)":"5b8d0e0d","clock()":"91ddadf4","eip712Domain()":"84b0196e","execute(address[],uint256[],bytes[],bytes32)":"2656227d","getProposalId(address[],uint256[],bytes[],bytes32)":"a8f8a668","getVotes(address,uint256)":"eb9019d4","getVotesWithParams(address,uint256,bytes)":"9a802a6d","hasVoted(uint256,address)":"43859632","hashProposal(address[],uint256[],bytes[],bytes32)":"c59057e4","name()":"06fdde03","nonces(address)":"7ecebe00","onERC1155BatchReceived(address,address,uint256[],uint256[],bytes)":"bc197c81","onERC1155Received(address,address,uint256,uint256,bytes)":"f23a6e61","onERC721Received(address,address,uint256,bytes)":"150b7a02","proposalDeadline(uint256)":"c01f9e37","proposalEta(uint256)":"ab58fb8e","proposalNeedsQueuing(uint256)":"a9a95294","proposalProposer(uint256)":"143489d0","proposalSnapshot(uint256)":"2d63f693","proposalThreshold()":"b58131b0","proposalVotes(uint256)":"544ffc9c","propose(address[],uint256[],bytes[],string)":"7d5e81e2","queue(address[],uint256[],bytes[],bytes32)":"160cbed7","quorum(uint256)":"f8ce560a","quorumDenominator()":"97c3d334","quorumNumerator()":"a7713a70","quorumNumerator(uint256)":"60c4247f","relay(address,uint256,bytes)":"c28bc2fa","setProposalThreshold(uint256)":"ece40cc1","setVotingDelay(uint48)":"79051887","setVotingPeriod(uint32)":"e540d01d","state(uint256)":"3e4f49e6","supportsInterface(bytes4)":"01ffc9a7","timelock()":"d33219b4","token()":"fc0c546a","updateQuorumNumerator(uint256)":"06f3f9e6","updateTimelock(address)":"a890c910","version()":"54fd4d50","votingDelay()":"3932abb1","votingPeriod()":"02a251a3"},"id":101}