{"abi":[{"type":"constructor","inputs":[{"name":"timelockController","type":"address","internalType":"address"}],"stateMutability":"nonpayable"},{"type":"receive","stateMutability":"payable"},{"type":"function","name":"erc20Balance","inputs":[{"name":"token","type":"address","internalType":"address"}],"outputs":[{"name":"","type":"uint256","internalType":"uint256"}],"stateMutability":"view"},{"type":"function","name":"ethBalance","inputs":[],"outputs":[{"name":"","type":"uint256","internalType":"uint256"}],"stateMutability":"view"},{"type":"function","name":"owner","inputs":[],"outputs":[{"name":"","type":"address","internalType":"address"}],"stateMutability":"view"},{"type":"function","name":"releaseERC20","inputs":[{"name":"token","type":"address","internalType":"address"},{"name":"to","type":"address","internalType":"address"},{"name":"amount","type":"uint256","internalType":"uint256"}],"outputs":[],"stateMutability":"nonpayable"},{"type":"function","name":"releaseETH","inputs":[{"name":"to","type":"address","internalType":"address payable"},{"name":"amount","type":"uint256","internalType":"uint256"}],"outputs":[],"stateMutability":"nonpayable"},{"type":"function","name":"renounceOwnership","inputs":[],"outputs":[],"stateMutability":"nonpayable"},{"type":"function","name":"transferOwnership","inputs":[{"name":"newOwner","type":"address","internalType":"address"}],"outputs":[],"stateMutability":"nonpayable"},{"type":"event","name":"ERC20Released","inputs":[{"name":"token","type":"address","indexed":true,"internalType":"address"},{"name":"to","type":"address","indexed":true,"internalType":"address"},{"name":"amount","type":"uint256","indexed":false,"internalType":"uint256"}],"anonymous":false},{"type":"event","name":"ETHReceived","inputs":[{"name":"sender","type":"address","indexed":true,"internalType":"address"},{"name":"amount","type":"uint256","indexed":false,"internalType":"uint256"}],"anonymous":false},{"type":"event","name":"ETHReleased","inputs":[{"name":"to","type":"address","indexed":true,"internalType":"address"},{"name":"amount","type":"uint256","indexed":false,"internalType":"uint256"}],"anonymous":false},{"type":"event","name":"OwnershipTransferred","inputs":[{"name":"previousOwner","type":"address","indexed":true,"internalType":"address"},{"name":"newOwner","type":"address","indexed":true,"internalType":"address"}],"anonymous":false},{"type":"error","name":"ETHTransferFailed","inputs":[]},{"type":"error","name":"InsufficientETH","inputs":[{"name":"requested","type":"uint256","internalType":"uint256"},{"name":"available","type":"uint256","internalType":"uint256"}]},{"type":"error","name":"OwnableInvalidOwner","inputs":[{"name":"owner","type":"address","internalType":"address"}]},{"type":"error","name":"OwnableUnauthorizedAccount","inputs":[{"name":"account","type":"address","internalType":"address"}]},{"type":"error","name":"SafeERC20FailedOperation","inputs":[{"name":"token","type":"address","internalType":"address"}]},{"type":"error","name":"ZeroAddress","inputs":[]},{"type":"error","name":"ZeroAmount","inputs":[]}],"bytecode":{"object":"0x6080346100b457601f6105f538819003918201601f19168301916001600160401b038311848410176100b8578084926020946040528339810103126100b457516001600160a01b03808216918290036100b457811561009c575f548260018060a01b03198216175f55167f8be0079c531659141344cd1fd0a4f28419497f9722a3daafe3b4186f6b6457e05f80a360405161052890816100cd8239f35b604051631e4fbdf760e01b81525f6004820152602490fd5b5f80fd5b634e487b7160e01b5f52604160045260245ffdfe60806040908082526004908136101561004b575b5050361561001f575f80fd5b513481527fbfe611b001dfcd411432f7bf0d79b82b4b2ee81511edac123a3403c357fb972a60203392a2005b5f3560e01c9081634e6630b014610463575080636cd533d814610353578063715018a6146102fc5780638da5cb5b146102d5578063b478fc0714610247578063e8e71f0c146101335763f2fde38b146100a45780610013565b3461012f57602036600319011261012f576100bd61047b565b906100c66104c7565b6001600160a01b039182169283156101195750505f54826bffffffffffffffffffffffff60a01b8216175f55167f8be0079c531659141344cd1fd0a4f28419497f9722a3daafe3b4186f6b6457e05f80a3005b905f6024925191631e4fbdf760e01b8352820152fd5b5f80fd5b50903461012f578060031936011261012f5781356001600160a01b0381169081900361012f57602435906101656104c7565b80156102385781156102295747821161020d575f8080938382947fef0230b1e217fba50128c03b1ebd46bdad5bb5fd147a9bdfe9ca90f17ce5ac0b60208951858152a25af13d15610208573d67ffffffffffffffff81116101f5578251906101d7601f8201601f191660200183610491565b81525f60203d92013e5b156101e857005b5163b12d13eb60e01b8152fd5b604184634e487b7160e01b5f525260245ffd5b6101e1565b825162fdf57560e51b8152808501839052476024820152604490fd5b505051631f2a200560e01b8152fd5b50505163d92e233d60e01b8152fd5b503461012f576020918260031936011261012f57826001600160a01b0361026c61047b565b169260248351809581936370a0823160e01b835230908301525afa9182156102cb575f9261029c575b5051908152f35b9091508281813d83116102c4575b6102b48183610491565b8101031261012f5751905f610295565b503d6102aa565b50513d5f823e3d90fd5b823461012f575f36600319011261012f575f5490516001600160a01b039091168152602090f35b3461012f575f36600319011261012f576103146104c7565b5f80546001600160a01b0319811682556001600160a01b03167f8be0079c531659141344cd1fd0a4f28419497f9722a3daafe3b4186f6b6457e08280a3005b50903461012f57606036600319011261012f5761036e61047b565b6024356001600160a01b03818116939184900361012f57604435926103916104c7565b16918215801561045b575b61044b57801561043b5783837f1998e30db89daf293a52c4fc4c4470cd506aafc3f9683e8e5daddad80cd6f4a460208551858152a381519363a9059cbb60e01b5f5285526024528260205f60448180875af19160015f5114831615610416575b521561040457005b602492635274afe760e01b8352820152fd5b9190506001811516610432578390833b15153d151616916103fc565b833d5f823e3d90fd5b8151631f2a200560e01b81528590fd5b815163d92e233d60e01b81528590fd5b50831561039c565b3461012f575f36600319011261012f57602090478152f35b600435906001600160a01b038216820361012f57565b90601f8019910116810190811067ffffffffffffffff8211176104b357604052565b634e487b7160e01b5f52604160045260245ffd5b5f546001600160a01b031633036104da57565b60405163118cdaa760e01b8152336004820152602490fdfea26469706673582212206c1d1d8f8574a2a6f5644581e00eaf8ead2419a00eed8f50d9fa7a03808e286b64736f6c63430008180033","linkReferences":{}},"methodIdentifiers":{"erc20Balance(address)":"b478fc07","ethBalance()":"4e6630b0","owner()":"8da5cb5b","releaseERC20(address,address,uint256)":"6cd533d8","releaseETH(address,uint256)":"e8e71f0c","renounceOwnership()":"715018a6","transferOwnership(address)":"f2fde38b"},"id":102}